{
  "_format": "hh-sol-artifact-1",
  "contractName": "AuditScheduler",
  "sourceName": "contracts/AuditScheduler.sol",
  "abi": [
    {
      "inputs": [
        {
          "internalType": "address",
          "name": "_guardToken",
          "type": "address"
        },
        {
          "internalType": "address",
          "name": "_auctionContract",
          "type": "address"
        },
        {
          "internalType": "address",
          "name": "_orchestrator",
          "type": "address"
        },
        {
          "internalType": "uint256",
          "name": "_minAuditBudget",
          "type": "uint256"
        }
      ],
      "stateMutability": "nonpayable",
      "type": "constructor"
    },
    {
      "inputs": [
        {
          "internalType": "address",
          "name": "owner",
          "type": "address"
        }
      ],
      "name": "OwnableInvalidOwner",
      "type": "error"
    },
    {
      "inputs": [
        {
          "internalType": "address",
          "name": "account",
          "type": "address"
        }
      ],
      "name": "OwnableUnauthorizedAccount",
      "type": "error"
    },
    {
      "inputs": [],
      "name": "ReentrancyGuardReentrantCall",
      "type": "error"
    },
    {
      "anonymous": false,
      "inputs": [
        {
          "indexed": true,
          "internalType": "address",
          "name": "contractAddress",
          "type": "address"
        },
        {
          "indexed": true,
          "internalType": "address",
          "name": "cancelledBy",
          "type": "address"
        },
        {
          "indexed": false,
          "internalType": "string",
          "name": "reason",
          "type": "string"
        }
      ],
      "name": "AuditScheduleCancelled",
      "type": "event"
    },
    {
      "anonymous": false,
      "inputs": [
        {
          "indexed": true,
          "internalType": "address",
          "name": "contractAddress",
          "type": "address"
        },
        {
          "indexed": true,
          "internalType": "address",
          "name": "owner",
          "type": "address"
        },
        {
          "indexed": false,
          "internalType": "address",
          "name": "scheduleAddress",
          "type": "address"
        },
        {
          "indexed": false,
          "internalType": "uint256",
          "name": "nextAuditDue",
          "type": "uint256"
        },
        {
          "indexed": false,
          "internalType": "enum AuditScheduler.TriggerMode",
          "name": "mode",
          "type": "uint8"
        },
        {
          "indexed": false,
          "internalType": "uint256",
          "name": "intervalSeconds",
          "type": "uint256"
        }
      ],
      "name": "AuditScheduled",
      "type": "event"
    },
    {
      "anonymous": false,
      "inputs": [
        {
          "indexed": true,
          "internalType": "address",
          "name": "contractAddress",
          "type": "address"
        },
        {
          "indexed": false,
          "internalType": "address",
          "name": "scheduleAddress",
          "type": "address"
        },
        {
          "indexed": false,
          "internalType": "uint256",
          "name": "triggeredAt",
          "type": "uint256"
        },
        {
          "indexed": false,
          "internalType": "uint256",
          "name": "timesTriggered",
          "type": "uint256"
        },
        {
          "indexed": false,
          "internalType": "address",
          "name": "nextScheduleAddress",
          "type": "address"
        }
      ],
      "name": "AuditTriggered",
      "type": "event"
    },
    {
      "anonymous": false,
      "inputs": [
        {
          "indexed": true,
          "internalType": "address",
          "name": "previousOwner",
          "type": "address"
        },
        {
          "indexed": true,
          "internalType": "address",
          "name": "newOwner",
          "type": "address"
        }
      ],
      "name": "OwnershipTransferred",
      "type": "event"
    },
    {
      "anonymous": false,
      "inputs": [
        {
          "indexed": true,
          "internalType": "address",
          "name": "contractAddress",
          "type": "address"
        },
        {
          "indexed": false,
          "internalType": "int64",
          "name": "responseCode",
          "type": "int64"
        },
        {
          "indexed": false,
          "internalType": "string",
          "name": "context",
          "type": "string"
        }
      ],
      "name": "ScheduleFailed",
      "type": "event"
    },
    {
      "inputs": [],
      "name": "auctionContract",
      "outputs": [
        {
          "internalType": "address",
          "name": "",
          "type": "address"
        }
      ],
      "stateMutability": "view",
      "type": "function"
    },
    {
      "inputs": [
        {
          "internalType": "address",
          "name": "contractAddress",
          "type": "address"
        }
      ],
      "name": "cancelSchedule",
      "outputs": [],
      "stateMutability": "nonpayable",
      "type": "function"
    },
    {
      "inputs": [],
      "name": "getActiveSchedules",
      "outputs": [
        {
          "internalType": "address[]",
          "name": "active",
          "type": "address[]"
        }
      ],
      "stateMutability": "view",
      "type": "function"
    },
    {
      "inputs": [
        {
          "internalType": "address",
          "name": "contractAddress",
          "type": "address"
        }
      ],
      "name": "getSchedule",
      "outputs": [
        {
          "components": [
            {
              "internalType": "address",
              "name": "owner",
              "type": "address"
            },
            {
              "internalType": "enum AuditScheduler.TriggerMode",
              "name": "mode",
              "type": "uint8"
            },
            {
              "internalType": "uint256",
              "name": "intervalSeconds",
              "type": "uint256"
            },
            {
              "internalType": "uint256",
              "name": "nextAuditDue",
              "type": "uint256"
            },
            {
              "internalType": "address",
              "name": "currentScheduleAddr",
              "type": "address"
            },
            {
              "internalType": "uint256",
              "name": "timesTriggered",
              "type": "uint256"
            },
            {
              "internalType": "bool",
              "name": "active",
              "type": "bool"
            }
          ],
          "internalType": "struct AuditScheduler.AuditSchedule",
          "name": "",
          "type": "tuple"
        }
      ],
      "stateMutability": "view",
      "type": "function"
    },
    {
      "inputs": [],
      "name": "guardToken",
      "outputs": [
        {
          "internalType": "address",
          "name": "",
          "type": "address"
        }
      ],
      "stateMutability": "view",
      "type": "function"
    },
    {
      "inputs": [],
      "name": "minAuditBudget",
      "outputs": [
        {
          "internalType": "uint256",
          "name": "",
          "type": "uint256"
        }
      ],
      "stateMutability": "view",
      "type": "function"
    },
    {
      "inputs": [
        {
          "internalType": "address",
          "name": "contractAddress",
          "type": "address"
        }
      ],
      "name": "onRedeployDetected",
      "outputs": [],
      "stateMutability": "nonpayable",
      "type": "function"
    },
    {
      "inputs": [],
      "name": "orchestrator",
      "outputs": [
        {
          "internalType": "address",
          "name": "",
          "type": "address"
        }
      ],
      "stateMutability": "view",
      "type": "function"
    },
    {
      "inputs": [],
      "name": "owner",
      "outputs": [
        {
          "internalType": "address",
          "name": "",
          "type": "address"
        }
      ],
      "stateMutability": "view",
      "type": "function"
    },
    {
      "inputs": [],
      "name": "renounceOwnership",
      "outputs": [],
      "stateMutability": "nonpayable",
      "type": "function"
    },
    {
      "inputs": [
        {
          "internalType": "address",
          "name": "contractAddress",
          "type": "address"
        },
        {
          "internalType": "uint256",
          "name": "intervalSeconds",
          "type": "uint256"
        },
        {
          "internalType": "enum AuditScheduler.TriggerMode",
          "name": "mode",
          "type": "uint8"
        }
      ],
      "name": "scheduleAudit",
      "outputs": [],
      "stateMutability": "nonpayable",
      "type": "function"
    },
    {
      "inputs": [
        {
          "internalType": "uint256",
          "name": "",
          "type": "uint256"
        }
      ],
      "name": "scheduledContracts",
      "outputs": [
        {
          "internalType": "address",
          "name": "",
          "type": "address"
        }
      ],
      "stateMutability": "view",
      "type": "function"
    },
    {
      "inputs": [
        {
          "internalType": "address",
          "name": "",
          "type": "address"
        }
      ],
      "name": "schedules",
      "outputs": [
        {
          "internalType": "address",
          "name": "owner",
          "type": "address"
        },
        {
          "internalType": "enum AuditScheduler.TriggerMode",
          "name": "mode",
          "type": "uint8"
        },
        {
          "internalType": "uint256",
          "name": "intervalSeconds",
          "type": "uint256"
        },
        {
          "internalType": "uint256",
          "name": "nextAuditDue",
          "type": "uint256"
        },
        {
          "internalType": "address",
          "name": "currentScheduleAddr",
          "type": "address"
        },
        {
          "internalType": "uint256",
          "name": "timesTriggered",
          "type": "uint256"
        },
        {
          "internalType": "bool",
          "name": "active",
          "type": "bool"
        }
      ],
      "stateMutability": "view",
      "type": "function"
    },
    {
      "inputs": [
        {
          "internalType": "address",
          "name": "_auctionContract",
          "type": "address"
        }
      ],
      "name": "setAuctionContract",
      "outputs": [],
      "stateMutability": "nonpayable",
      "type": "function"
    },
    {
      "inputs": [
        {
          "internalType": "uint256",
          "name": "_minAuditBudget",
          "type": "uint256"
        }
      ],
      "name": "setMinAuditBudget",
      "outputs": [],
      "stateMutability": "nonpayable",
      "type": "function"
    },
    {
      "inputs": [
        {
          "internalType": "address",
          "name": "_orchestrator",
          "type": "address"
        }
      ],
      "name": "setOrchestrator",
      "outputs": [],
      "stateMutability": "nonpayable",
      "type": "function"
    },
    {
      "inputs": [],
      "name": "totalScheduled",
      "outputs": [
        {
          "internalType": "uint256",
          "name": "",
          "type": "uint256"
        }
      ],
      "stateMutability": "view",
      "type": "function"
    },
    {
      "inputs": [
        {
          "internalType": "address",
          "name": "newOwner",
          "type": "address"
        }
      ],
      "name": "transferOwnership",
      "outputs": [],
      "stateMutability": "nonpayable",
      "type": "function"
    },
    {
      "inputs": [
        {
          "internalType": "address",
          "name": "contractAddress",
          "type": "address"
        }
      ],
      "name": "triggerAudit",
      "outputs": [],
      "stateMutability": "nonpayable",
      "type": "function"
    }
  ],
  "bytecode": "0x608060405234801562000010575f80fd5b5060405162001aac38038062001aac83398101604081905262000033916200023d565b60015f5533806200005e57604051631e4fbdf760e01b81525f60048201526024015b60405180910390fd5b6200006981620001d0565b506001600160a01b038416620000ce5760405162461bcd60e51b815260206004820152602360248201527f41756469745363686564756c65723a20677561726420746f6b656e206973207a60448201526265726f60e81b606482015260840162000055565b6001600160a01b038316620001265760405162461bcd60e51b815260206004820152601f60248201527f41756469745363686564756c65723a2061756374696f6e206973207a65726f00604482015260640162000055565b6001600160a01b0382166200018a5760405162461bcd60e51b8152602060048201526024808201527f41756469745363686564756c65723a206f7263686573747261746f72206973206044820152637a65726f60e01b606482015260840162000055565b600280546001600160a01b03199081166001600160a01b03968716179091556003805482169486169490941790935560048054909316919093161790556005556200028c565b600180546001600160a01b038381166001600160a01b0319831681179093556040519116919082907f8be0079c531659141344cd1fd0a4f28419497f9722a3daafe3b4186f6b6457e0905f90a35050565b80516001600160a01b038116811462000238575f80fd5b919050565b5f805f806080858703121562000251575f80fd5b6200025c8562000221565b93506200026c6020860162000221565b92506200027c6040860162000221565b6060959095015193969295505050565b611812806200029a5f395ff3fe608060405234801561000f575f80fd5b506004361061011c575f3560e01c8063ad670dc0116100a9578063e56588ef1161006e578063e56588ef1461029b578063eb6fbe5c146102ae578063ec367a0f146102c1578063f0caaafb146102d4578063f2fde38b146102e7575f80fd5b8063ad670dc014610239578063b0dc6ce814610242578063b74795d914610255578063cd28ef0d14610268578063d39fee341461027b575f80fd5b806333986db6116100ef57806333986db61461018d578063367524bc1461019f578063715018a6146101b257806380c3780f146101ba5780638da5cb5b14610228575f80fd5b8063023924c7146101205780630ab8afac146101355780630b35a4b0146101655780630fdb27501461017a575b5f80fd5b61013361012e36600461140e565b6102fa565b005b600354610148906001600160a01b031681565b6040516001600160a01b0390911681526020015b60405180910390f35b61016d61037f565b60405161015c9190611430565b61013361018836600461140e565b6104f6565b6007545b60405190815260200161015c565b6101336101ad36600461147c565b61062c565b61013361093c565b6102156101c836600461140e565b60066020525f90815260409020805460018201546002830154600384015460048501546005909501546001600160a01b038086169660ff600160a01b909704871696939091169290911687565b60405161015c97969594939291906114f2565b6001546001600160a01b0316610148565b61019160055481565b610133610250366004611540565b61094f565b600454610148906001600160a01b031681565b61013361027636600461140e565b61095c565b61028e61028936600461140e565b6109e8565b60405161015c9190611557565b600254610148906001600160a01b031681565b6101336102bc36600461140e565b610ac2565b6101486102cf366004611540565b610c62565b6101336102e236600461140e565b610c8a565b6101336102f536600461140e565b610d8a565b610302610dc4565b6001600160a01b03811661035d5760405162461bcd60e51b815260206004820152601f60248201527f41756469745363686564756c65723a2061756374696f6e206973207a65726f0060448201526064015b60405180910390fd5b600380546001600160a01b0319166001600160a01b0392909216919091179055565b6007546060905f90815b818110156103ec5760065f600783815481106103a7576103a76115bc565b5f9182526020808320909101546001600160a01b0316835282019290925260400190206005015460ff16156103e457826103e0816115e4565b9350505b600101610389565b508167ffffffffffffffff811115610406576104066115fc565b60405190808252806020026020018201604052801561042f578160200160208202803683370190505b5092505f805b828110156104ef5760065f60078381548110610453576104536115bc565b5f9182526020808320909101546001600160a01b0316835282019290925260400190206005015460ff16156104e75760078181548110610495576104956115bc565b5f918252602090912001546001600160a01b031685836104b4816115e4565b9450815181106104c6576104c66115bc565b60200260200101906001600160a01b031690816001600160a01b0316815250505b600101610435565b5050505090565b6004546001600160a01b031633146105635760405162461bcd60e51b815260206004820152602a60248201527f41756469745363686564756c65723a2063616c6c6572206973206e6f74206f7260448201526931b432b9ba3930ba37b960b11b6064820152608401610354565b61056b610df1565b6001600160a01b0381165f908152600660205260409020600581015460ff1615806105b3575060018154600160a01b900460ff1660018111156105b0576105b06114be565b14155b156105be5750610620565b60038101546001600160a01b0316156105fc5760038101546105e8906001600160a01b0316610e19565b506003810180546001600160a01b03191690555b5f61060961012c42611610565b60028301819055905061061c8382610eea565b5050505b61062960015f55565b50565b610634610df1565b6001600160a01b03831661068a5760405162461bcd60e51b815260206004820181905260248201527f41756469745363686564756c65723a20636f6e7472616374206973207a65726f6044820152606401610354565b5f81600181111561069d5761069d6114be565b0361076257610e108210156106ff5760405162461bcd60e51b815260206004820152602260248201527f41756469745363686564756c65723a20696e74657276616c20746f6f2073686f6044820152611c9d60f21b6064820152608401610354565b6301e1338082111561075d5760405162461bcd60e51b815260206004820152602160248201527f41756469745363686564756c65723a20696e74657276616c20746f6f206c6f6e6044820152606760f81b6064820152608401610354565b610766565b5f91505b6001600160a01b0383165f908152600660205260409020600581015460ff16801561079d575060038101546001600160a01b031615155b156107bb5760038101546107b9906001600160a01b0316610e19565b505b600581015460ff161580156107d8575080546001600160a01b0316155b1561082857600780546001810182555f919091527fa66cc928b5edb82af9bd49922954155ab7b0942694bea4ce44661d9a8736c6880180546001600160a01b0319166001600160a01b0386161790555b80546001600160a01b031981163390811783558391839160ff60a01b19166001600160a81b031990911617600160a01b83600181111561086a5761086a6114be565b021790555060018181018490555f6004830181905560058301805460ff19168317905590839081111561089f5761089f6114be565b036108c9575f6108af8442611610565b6002830181905590506108c28582610eea565b505061092d565b5f600282018190556003820180546001600160a01b031916905560405133916001600160a01b038716917fe178cd52105b3ab4ba5879a4087f01d4ade1c819b77cf47e9a6a32842ad230479161092491819088908a90611623565b60405180910390a35b5061093760015f55565b505050565b610944610dc4565b61094d5f61113b565b565b610957610dc4565b600555565b610964610dc4565b6001600160a01b0381166109c65760405162461bcd60e51b8152602060048201526024808201527f41756469745363686564756c65723a206f7263686573747261746f72206973206044820152637a65726f60e01b6064820152608401610354565b600480546001600160a01b0319166001600160a01b0392909216919091179055565b6040805160e080820183525f8083526020808401829052838501829052606084018290526080840182905260a0840182905260c084018290526001600160a01b038681168352600682529185902085519384019095528454918216835292939192830190600160a01b900460ff166001811115610a6757610a676114be565b6001811115610a7857610a786114be565b8152600182015460208201526002820154604082015260038201546001600160a01b031660608201526004820154608082015260059091015460ff16151560a09091015292915050565b610aca610df1565b6001600160a01b0381165f908152600660205260409020600581015460ff16610b055760405162461bcd60e51b815260040161035490611656565b33301480610b1d57506004546001600160a01b031633145b610b755760405162461bcd60e51b815260206004820152602360248201527f41756469745363686564756c65723a20756e617574686f72697a65642063616c6044820152623632b960e91b6064820152608401610354565b6001816004015f828254610b899190611610565b90915550506003810180546001600160a01b031981169091556001600160a01b03165f808354600160a01b900460ff166001811115610bca57610bca6114be565b03610bfb575f83600101548460020154610be49190611610565b600285018190559050610bf78582610eea565b9150505b6004830154604080516001600160a01b0385811682524260208301529181019290925282811660608301528516907f467f6ad139c5adddad28c9b58d72d7113880a2196aea5eb5543ca391f1efc6209060800160405180910390a250505061062960015f55565b60078181548110610c71575f80fd5b5f918252602090912001546001600160a01b0316905081565b610c92610df1565b6001600160a01b0381165f908152600660205260409020600581015460ff16610ccd5760405162461bcd60e51b815260040161035490611656565b80546001600160a01b0316331480610cef57506001546001600160a01b031633145b80610d0457506004546001600160a01b031633145b610d505760405162461bcd60e51b815260206004820152601c60248201527f41756469745363686564756c65723a20756e617574686f72697a6564000000006044820152606401610354565b610d8082336040518060400160405280600d81526020016c1b585b9d585b17d8d85b98d95b609a1b81525061118c565b5061062960015f55565b610d92610dc4565b6001600160a01b038116610dbb57604051631e4fbdf760e01b81525f6004820152602401610354565b6106298161113b565b6001546001600160a01b0316331461094d5760405163118cdaa760e01b8152336004820152602401610354565b60025f5403610e1357604051633ee5aeb560e01b815260040160405180910390fd5b60025f55565b604080516001600160a01b03831660248083019190915282518083039091018152604490910182526020810180516001600160e01b031663238d6e7760e21b17905290515f918291829161016b91610e7191906116ba565b5f604051808303815f865af19150503d805f8114610eaa576040519150601f19603f3d011682016040523d82523d5f602084013e610eaf565b606091505b5091509150818015610ec357506020815110155b610ece576015610ee2565b80806020019051810190610ee291906116eb565b949350505050565b5f610ef882621e8480611236565b610f9b57604080516015815260208101829052600b818301526a6e6f5f636170616369747960a81b606082015290516001600160a01b038516917fc91338f15074810f6110fe80a61f2c2ad1a7f6046f19389101ff89e78b80e437919081900360800190a2610f948330604051806040016040528060148152602001736e6f5f7363686564756c655f636170616369747960601b81525061118c565b505f611135565b604080516001600160a01b0385166024808301919091528251808303909101815260449091019091526020810180516001600160e01b0316633adbef9760e21b1790525f80610ff03086621e84808487611302565b9092509050600782900b6016146110ae57856001600160a01b03167fc91338f15074810f6110fe80a61f2c2ad1a7f6046f19389101ff89e78b80e4378360405161106f919060079190910b8152604060208201819052601490820152731cd8da19591d5b1957d8d85b1b17d9985a5b195960621b606082015260800190565b60405180910390a26110a38630604051806040016040528060098152602001683439b9afb2b93937b960b91b81525061118c565b5f9350505050611135565b6001600160a01b038681165f81815260066020526040908190206003810180546001600160a01b03191686861617905580546001909101549151938116937fe178cd52105b3ab4ba5879a4087f01d4ade1c819b77cf47e9a6a32842ad23047926111289287928c92600160a01b90920460ff169190611623565b60405180910390a3925050505b92915050565b600180546001600160a01b038381166001600160a01b0319831681179093556040519116919082907f8be0079c531659141344cd1fd0a4f28419497f9722a3daafe3b4186f6b6457e0905f90a35050565b6001600160a01b038084165f9081526006602052604090206003810154909116156111dc5760038101546111c8906001600160a01b0316610e19565b506003810180546001600160a01b03191690555b60058101805460ff191690556040516001600160a01b0380851691908616907f7558b85953f374d1d3aced7188987ea6d7f57a302ec2f550f4ee41ece2b1bd839061122890869061172f565b60405180910390a350505050565b6040805160248101849052604480820184905282518083039091018152606490910182526020810180516001600160e01b0316631391100d60e31b17905290515f918291829161016b9161128a91906116ba565b5f60405180830381855afa9150503d805f81146112c2576040519150601f19603f3d011682016040523d82523d5f602084013e6112c7565b606091505b50915091508180156112db57506020815110155b6112e5575f6112f9565b808060200190518101906112f99190611741565b95945050505050565b5f805f8061016b6001600160a01b0316633b7e6dfd60e01b8a8a8a8a8a604051602401611333959493929190611760565b60408051601f198184030181529181526020820180516001600160e01b03166001600160e01b031990941693909317909252905161137191906116ba565b5f604051808303815f865af19150503d805f81146113aa576040519150601f19603f3d011682016040523d82523d5f602084013e6113af565b606091505b50915091508180156113c357506040815110155b156113e657808060200190518101906113dc91906117a7565b90945092506113ee565b601593505f92505b50509550959350505050565b6001600160a01b0381168114610629575f80fd5b5f6020828403121561141e575f80fd5b8135611429816113fa565b9392505050565b602080825282518282018190525f9190848201906040850190845b818110156114705783516001600160a01b03168352928401929184019160010161144b565b50909695505050505050565b5f805f6060848603121561148e575f80fd5b8335611499816113fa565b9250602084013591506040840135600281106114b3575f80fd5b809150509250925092565b634e487b7160e01b5f52602160045260245ffd5b600281106114ee57634e487b7160e01b5f52602160045260245ffd5b9052565b6001600160a01b03888116825260e0820190611511602084018a6114d2565b8760408401528660608401528086166080840152508360a083015282151560c083015298975050505050505050565b5f60208284031215611550575f80fd5b5035919050565b81516001600160a01b03908116825260208084015160e08401929161157e908501826114d2565b5060408401516040840152606084015160608401528060808501511660808401525060a083015160a083015260c0830151151560c083015292915050565b634e487b7160e01b5f52603260045260245ffd5b634e487b7160e01b5f52601160045260245ffd5b5f600182016115f5576115f56115d0565b5060010190565b634e487b7160e01b5f52604160045260245ffd5b80820180821115611135576111356115d0565b6001600160a01b0385168152602081018490526080810161164760408301856114d2565b82606083015295945050505050565b60208082526022908201527f41756469745363686564756c65723a206e6f20616374697665207363686564756040820152616c6560f01b606082015260800190565b5f5b838110156116b257818101518382015260200161169a565b50505f910152565b5f82516116cb818460208701611698565b9190910192915050565b8051600781900b81146116e6575f80fd5b919050565b5f602082840312156116fb575f80fd5b611429826116d5565b5f815180845261171b816020860160208601611698565b601f01601f19169290920160200192915050565b602081525f6114296020830184611704565b5f60208284031215611751575f80fd5b81518015158114611429575f80fd5b60018060a01b038616815284602082015283604082015267ffffffffffffffff8316606082015260a060808201525f61179c60a0830184611704565b979650505050505050565b5f80604083850312156117b8575f80fd5b6117c1836116d5565b915060208301516117d1816113fa565b80915050925092905056fea2646970667358221220a07c69424c632443590959c299fecbfe8c6aad4bc9372244d5bfce8c358e531764736f6c63430008180033",
  "linkReferences": {},
  "deployedLinkReferences": {}
}