{
  "_format": "hh-sol-artifact-1",
  "contractName": "DelegatedStaking",
  "sourceName": "contracts/DelegatedStaking.sol",
  "abi": [
    {
      "inputs": [
        {
          "internalType": "address",
          "name": "_guardToken",
          "type": "address"
        },
        {
          "internalType": "address",
          "name": "_treasury",
          "type": "address"
        }
      ],
      "stateMutability": "nonpayable",
      "type": "constructor"
    },
    {
      "inputs": [],
      "name": "EnforcedPause",
      "type": "error"
    },
    {
      "inputs": [],
      "name": "ExpectedPause",
      "type": "error"
    },
    {
      "inputs": [
        {
          "internalType": "address",
          "name": "owner",
          "type": "address"
        }
      ],
      "name": "OwnableInvalidOwner",
      "type": "error"
    },
    {
      "inputs": [
        {
          "internalType": "address",
          "name": "account",
          "type": "address"
        }
      ],
      "name": "OwnableUnauthorizedAccount",
      "type": "error"
    },
    {
      "inputs": [],
      "name": "ReentrancyGuardReentrantCall",
      "type": "error"
    },
    {
      "anonymous": false,
      "inputs": [
        {
          "indexed": true,
          "internalType": "address",
          "name": "delegator",
          "type": "address"
        },
        {
          "indexed": true,
          "internalType": "address",
          "name": "agent",
          "type": "address"
        },
        {
          "indexed": false,
          "internalType": "uint96",
          "name": "amount",
          "type": "uint96"
        },
        {
          "indexed": false,
          "internalType": "uint96",
          "name": "newTotalDelegated",
          "type": "uint96"
        }
      ],
      "name": "Delegated",
      "type": "event"
    },
    {
      "anonymous": false,
      "inputs": [
        {
          "indexed": true,
          "internalType": "address",
          "name": "agent",
          "type": "address"
        },
        {
          "indexed": false,
          "internalType": "uint96",
          "name": "totalSlashed",
          "type": "uint96"
        },
        {
          "indexed": false,
          "internalType": "uint32",
          "name": "delegatorCount",
          "type": "uint32"
        }
      ],
      "name": "DelegationSlashed",
      "type": "event"
    },
    {
      "anonymous": false,
      "inputs": [
        {
          "indexed": true,
          "internalType": "address",
          "name": "token",
          "type": "address"
        }
      ],
      "name": "GuardTokenAssociated",
      "type": "event"
    },
    {
      "anonymous": false,
      "inputs": [
        {
          "indexed": true,
          "internalType": "address",
          "name": "previousOwner",
          "type": "address"
        },
        {
          "indexed": true,
          "internalType": "address",
          "name": "newOwner",
          "type": "address"
        }
      ],
      "name": "OwnershipTransferred",
      "type": "event"
    },
    {
      "anonymous": false,
      "inputs": [
        {
          "indexed": false,
          "internalType": "address",
          "name": "account",
          "type": "address"
        }
      ],
      "name": "Paused",
      "type": "event"
    },
    {
      "anonymous": false,
      "inputs": [
        {
          "indexed": true,
          "internalType": "address",
          "name": "agent",
          "type": "address"
        },
        {
          "indexed": false,
          "internalType": "uint16",
          "name": "oldBps",
          "type": "uint16"
        },
        {
          "indexed": false,
          "internalType": "uint16",
          "name": "newBps",
          "type": "uint16"
        }
      ],
      "name": "RewardShareUpdated",
      "type": "event"
    },
    {
      "anonymous": false,
      "inputs": [
        {
          "indexed": true,
          "internalType": "address",
          "name": "delegator",
          "type": "address"
        },
        {
          "indexed": true,
          "internalType": "address",
          "name": "agent",
          "type": "address"
        },
        {
          "indexed": false,
          "internalType": "uint96",
          "name": "amount",
          "type": "uint96"
        }
      ],
      "name": "RewardsClaimed",
      "type": "event"
    },
    {
      "anonymous": false,
      "inputs": [
        {
          "indexed": true,
          "internalType": "address",
          "name": "agent",
          "type": "address"
        },
        {
          "indexed": false,
          "internalType": "uint96",
          "name": "totalAmount",
          "type": "uint96"
        },
        {
          "indexed": false,
          "internalType": "uint96",
          "name": "delegatorShare",
          "type": "uint96"
        }
      ],
      "name": "RewardsDistributed",
      "type": "event"
    },
    {
      "anonymous": false,
      "inputs": [
        {
          "indexed": true,
          "internalType": "address",
          "name": "delegator",
          "type": "address"
        },
        {
          "indexed": true,
          "internalType": "address",
          "name": "agent",
          "type": "address"
        },
        {
          "indexed": false,
          "internalType": "uint96",
          "name": "amount",
          "type": "uint96"
        }
      ],
      "name": "UndelegationCompleted",
      "type": "event"
    },
    {
      "anonymous": false,
      "inputs": [
        {
          "indexed": true,
          "internalType": "address",
          "name": "delegator",
          "type": "address"
        },
        {
          "indexed": true,
          "internalType": "address",
          "name": "agent",
          "type": "address"
        },
        {
          "indexed": false,
          "internalType": "uint96",
          "name": "amount",
          "type": "uint96"
        },
        {
          "indexed": false,
          "internalType": "uint48",
          "name": "completesAt",
          "type": "uint48"
        }
      ],
      "name": "UndelegationRequested",
      "type": "event"
    },
    {
      "anonymous": false,
      "inputs": [
        {
          "indexed": false,
          "internalType": "address",
          "name": "account",
          "type": "address"
        }
      ],
      "name": "Unpaused",
      "type": "event"
    },
    {
      "inputs": [
        {
          "internalType": "address",
          "name": "distributor",
          "type": "address"
        }
      ],
      "name": "addAuthorizedDistributor",
      "outputs": [],
      "stateMutability": "nonpayable",
      "type": "function"
    },
    {
      "inputs": [
        {
          "internalType": "address",
          "name": "",
          "type": "address"
        },
        {
          "internalType": "uint256",
          "name": "",
          "type": "uint256"
        }
      ],
      "name": "agentDelegators",
      "outputs": [
        {
          "internalType": "address",
          "name": "",
          "type": "address"
        }
      ],
      "stateMutability": "view",
      "type": "function"
    },
    {
      "inputs": [
        {
          "internalType": "address",
          "name": "",
          "type": "address"
        }
      ],
      "name": "agentPools",
      "outputs": [
        {
          "internalType": "address",
          "name": "agent",
          "type": "address"
        },
        {
          "internalType": "uint96",
          "name": "totalDelegated",
          "type": "uint96"
        },
        {
          "internalType": "uint96",
          "name": "totalRewardsAccrued",
          "type": "uint96"
        },
        {
          "internalType": "uint256",
          "name": "rewardPerTokStored",
          "type": "uint256"
        },
        {
          "internalType": "uint16",
          "name": "rewardShareBps",
          "type": "uint16"
        },
        {
          "internalType": "uint32",
          "name": "delegatorCount",
          "type": "uint32"
        }
      ],
      "stateMutability": "view",
      "type": "function"
    },
    {
      "inputs": [],
      "name": "agentRegistry",
      "outputs": [
        {
          "internalType": "address",
          "name": "",
          "type": "address"
        }
      ],
      "stateMutability": "view",
      "type": "function"
    },
    {
      "inputs": [],
      "name": "associateGuardToken",
      "outputs": [],
      "stateMutability": "nonpayable",
      "type": "function"
    },
    {
      "inputs": [
        {
          "internalType": "address",
          "name": "",
          "type": "address"
        }
      ],
      "name": "authorizedDistributors",
      "outputs": [
        {
          "internalType": "bool",
          "name": "",
          "type": "bool"
        }
      ],
      "stateMutability": "view",
      "type": "function"
    },
    {
      "inputs": [],
      "name": "claimAllRewards",
      "outputs": [],
      "stateMutability": "nonpayable",
      "type": "function"
    },
    {
      "inputs": [
        {
          "internalType": "address",
          "name": "agent",
          "type": "address"
        }
      ],
      "name": "claimRewards",
      "outputs": [],
      "stateMutability": "nonpayable",
      "type": "function"
    },
    {
      "inputs": [
        {
          "internalType": "address",
          "name": "agent",
          "type": "address"
        }
      ],
      "name": "completeUndelegate",
      "outputs": [],
      "stateMutability": "nonpayable",
      "type": "function"
    },
    {
      "inputs": [],
      "name": "defaultRewardBps",
      "outputs": [
        {
          "internalType": "uint256",
          "name": "",
          "type": "uint256"
        }
      ],
      "stateMutability": "view",
      "type": "function"
    },
    {
      "inputs": [
        {
          "internalType": "address",
          "name": "agent",
          "type": "address"
        },
        {
          "internalType": "uint96",
          "name": "amount",
          "type": "uint96"
        }
      ],
      "name": "delegate",
      "outputs": [],
      "stateMutability": "nonpayable",
      "type": "function"
    },
    {
      "inputs": [
        {
          "internalType": "bytes32",
          "name": "",
          "type": "bytes32"
        }
      ],
      "name": "delegations",
      "outputs": [
        {
          "internalType": "address",
          "name": "delegator",
          "type": "address"
        },
        {
          "internalType": "address",
          "name": "agent",
          "type": "address"
        },
        {
          "internalType": "uint96",
          "name": "amount",
          "type": "uint96"
        },
        {
          "internalType": "uint48",
          "name": "delegatedAt",
          "type": "uint48"
        },
        {
          "internalType": "uint48",
          "name": "lastRewardClaimAt",
          "type": "uint48"
        },
        {
          "internalType": "uint96",
          "name": "pendingRewards",
          "type": "uint96"
        },
        {
          "internalType": "uint96",
          "name": "unbondingAmount",
          "type": "uint96"
        },
        {
          "internalType": "uint48",
          "name": "unbondingCompleteAt",
          "type": "uint48"
        },
        {
          "internalType": "uint256",
          "name": "rewardPerTokenPaid",
          "type": "uint256"
        },
        {
          "internalType": "bool",
          "name": "active",
          "type": "bool"
        }
      ],
      "stateMutability": "view",
      "type": "function"
    },
    {
      "inputs": [
        {
          "internalType": "address",
          "name": "",
          "type": "address"
        },
        {
          "internalType": "uint256",
          "name": "",
          "type": "uint256"
        }
      ],
      "name": "delegatorAgents",
      "outputs": [
        {
          "internalType": "address",
          "name": "",
          "type": "address"
        }
      ],
      "stateMutability": "view",
      "type": "function"
    },
    {
      "inputs": [
        {
          "internalType": "address",
          "name": "agent",
          "type": "address"
        },
        {
          "internalType": "uint96",
          "name": "amount",
          "type": "uint96"
        }
      ],
      "name": "distributeRewards",
      "outputs": [],
      "stateMutability": "nonpayable",
      "type": "function"
    },
    {
      "inputs": [
        {
          "internalType": "address",
          "name": "agent",
          "type": "address"
        }
      ],
      "name": "getAgentDelegators",
      "outputs": [
        {
          "internalType": "address[]",
          "name": "delegators_",
          "type": "address[]"
        },
        {
          "internalType": "uint96[]",
          "name": "amounts",
          "type": "uint96[]"
        }
      ],
      "stateMutability": "view",
      "type": "function"
    },
    {
      "inputs": [
        {
          "internalType": "address",
          "name": "agent",
          "type": "address"
        }
      ],
      "name": "getAgentPool",
      "outputs": [
        {
          "components": [
            {
              "internalType": "address",
              "name": "agent",
              "type": "address"
            },
            {
              "internalType": "uint96",
              "name": "totalDelegated",
              "type": "uint96"
            },
            {
              "internalType": "uint96",
              "name": "totalRewardsAccrued",
              "type": "uint96"
            },
            {
              "internalType": "uint256",
              "name": "rewardPerTokStored",
              "type": "uint256"
            },
            {
              "internalType": "uint16",
              "name": "rewardShareBps",
              "type": "uint16"
            },
            {
              "internalType": "uint32",
              "name": "delegatorCount",
              "type": "uint32"
            }
          ],
          "internalType": "struct DelegatedStaking.AgentDelegationPool",
          "name": "",
          "type": "tuple"
        }
      ],
      "stateMutability": "view",
      "type": "function"
    },
    {
      "inputs": [
        {
          "internalType": "address",
          "name": "delegator",
          "type": "address"
        },
        {
          "internalType": "address",
          "name": "agent",
          "type": "address"
        }
      ],
      "name": "getDelegation",
      "outputs": [
        {
          "components": [
            {
              "internalType": "address",
              "name": "delegator",
              "type": "address"
            },
            {
              "internalType": "address",
              "name": "agent",
              "type": "address"
            },
            {
              "internalType": "uint96",
              "name": "amount",
              "type": "uint96"
            },
            {
              "internalType": "uint48",
              "name": "delegatedAt",
              "type": "uint48"
            },
            {
              "internalType": "uint48",
              "name": "lastRewardClaimAt",
              "type": "uint48"
            },
            {
              "internalType": "uint96",
              "name": "pendingRewards",
              "type": "uint96"
            },
            {
              "internalType": "uint96",
              "name": "unbondingAmount",
              "type": "uint96"
            },
            {
              "internalType": "uint48",
              "name": "unbondingCompleteAt",
              "type": "uint48"
            },
            {
              "internalType": "uint256",
              "name": "rewardPerTokenPaid",
              "type": "uint256"
            },
            {
              "internalType": "bool",
              "name": "active",
              "type": "bool"
            }
          ],
          "internalType": "struct DelegatedStaking.Delegation",
          "name": "",
          "type": "tuple"
        }
      ],
      "stateMutability": "view",
      "type": "function"
    },
    {
      "inputs": [
        {
          "internalType": "address",
          "name": "delegator",
          "type": "address"
        }
      ],
      "name": "getDelegatorPortfolio",
      "outputs": [
        {
          "internalType": "address[]",
          "name": "agents_",
          "type": "address[]"
        },
        {
          "internalType": "uint96[]",
          "name": "amounts",
          "type": "uint96[]"
        },
        {
          "internalType": "uint96[]",
          "name": "pendingRewards_",
          "type": "uint96[]"
        }
      ],
      "stateMutability": "view",
      "type": "function"
    },
    {
      "inputs": [
        {
          "internalType": "address",
          "name": "agent",
          "type": "address"
        }
      ],
      "name": "getEffectiveBacking",
      "outputs": [
        {
          "internalType": "uint256",
          "name": "",
          "type": "uint256"
        }
      ],
      "stateMutability": "view",
      "type": "function"
    },
    {
      "inputs": [
        {
          "internalType": "address",
          "name": "delegator",
          "type": "address"
        },
        {
          "internalType": "address",
          "name": "agent",
          "type": "address"
        }
      ],
      "name": "getPendingRewards",
      "outputs": [
        {
          "internalType": "uint96",
          "name": "",
          "type": "uint96"
        }
      ],
      "stateMutability": "view",
      "type": "function"
    },
    {
      "inputs": [
        {
          "internalType": "uint256",
          "name": "maxResults",
          "type": "uint256"
        }
      ],
      "name": "getTopAgentsByDelegation",
      "outputs": [
        {
          "internalType": "address[]",
          "name": "agents_",
          "type": "address[]"
        },
        {
          "internalType": "uint96[]",
          "name": "totals",
          "type": "uint96[]"
        }
      ],
      "stateMutability": "view",
      "type": "function"
    },
    {
      "inputs": [
        {
          "internalType": "address",
          "name": "agent",
          "type": "address"
        }
      ],
      "name": "getTotalDelegatedToAgent",
      "outputs": [
        {
          "internalType": "uint96",
          "name": "",
          "type": "uint96"
        }
      ],
      "stateMutability": "view",
      "type": "function"
    },
    {
      "inputs": [],
      "name": "guardToken",
      "outputs": [
        {
          "internalType": "address",
          "name": "",
          "type": "address"
        }
      ],
      "stateMutability": "view",
      "type": "function"
    },
    {
      "inputs": [
        {
          "internalType": "address",
          "name": "delegator",
          "type": "address"
        },
        {
          "internalType": "address",
          "name": "agent",
          "type": "address"
        }
      ],
      "name": "isDelegating",
      "outputs": [
        {
          "internalType": "bool",
          "name": "",
          "type": "bool"
        }
      ],
      "stateMutability": "view",
      "type": "function"
    },
    {
      "inputs": [],
      "name": "maxDelegatorsPerAgent",
      "outputs": [
        {
          "internalType": "uint256",
          "name": "",
          "type": "uint256"
        }
      ],
      "stateMutability": "view",
      "type": "function"
    },
    {
      "inputs": [],
      "name": "minDelegation",
      "outputs": [
        {
          "internalType": "uint256",
          "name": "",
          "type": "uint256"
        }
      ],
      "stateMutability": "view",
      "type": "function"
    },
    {
      "inputs": [],
      "name": "owner",
      "outputs": [
        {
          "internalType": "address",
          "name": "",
          "type": "address"
        }
      ],
      "stateMutability": "view",
      "type": "function"
    },
    {
      "inputs": [],
      "name": "pause",
      "outputs": [],
      "stateMutability": "nonpayable",
      "type": "function"
    },
    {
      "inputs": [],
      "name": "paused",
      "outputs": [
        {
          "internalType": "bool",
          "name": "",
          "type": "bool"
        }
      ],
      "stateMutability": "view",
      "type": "function"
    },
    {
      "inputs": [
        {
          "internalType": "address",
          "name": "agent",
          "type": "address"
        },
        {
          "internalType": "uint256",
          "name": "slashBps",
          "type": "uint256"
        }
      ],
      "name": "propagateSlash",
      "outputs": [],
      "stateMutability": "nonpayable",
      "type": "function"
    },
    {
      "inputs": [
        {
          "internalType": "address",
          "name": "distributor",
          "type": "address"
        }
      ],
      "name": "removeAuthorizedDistributor",
      "outputs": [],
      "stateMutability": "nonpayable",
      "type": "function"
    },
    {
      "inputs": [],
      "name": "renounceOwnership",
      "outputs": [],
      "stateMutability": "nonpayable",
      "type": "function"
    },
    {
      "inputs": [
        {
          "internalType": "address",
          "name": "agent",
          "type": "address"
        },
        {
          "internalType": "uint96",
          "name": "amount",
          "type": "uint96"
        }
      ],
      "name": "requestUndelegate",
      "outputs": [],
      "stateMutability": "nonpayable",
      "type": "function"
    },
    {
      "inputs": [
        {
          "internalType": "address",
          "name": "_agentRegistry",
          "type": "address"
        }
      ],
      "name": "setAgentRegistry",
      "outputs": [],
      "stateMutability": "nonpayable",
      "type": "function"
    },
    {
      "inputs": [
        {
          "internalType": "uint256",
          "name": "bps",
          "type": "uint256"
        }
      ],
      "name": "setDefaultRewardBps",
      "outputs": [],
      "stateMutability": "nonpayable",
      "type": "function"
    },
    {
      "inputs": [
        {
          "internalType": "address",
          "name": "_guardToken",
          "type": "address"
        }
      ],
      "name": "setGuardToken",
      "outputs": [],
      "stateMutability": "nonpayable",
      "type": "function"
    },
    {
      "inputs": [
        {
          "internalType": "uint256",
          "name": "max",
          "type": "uint256"
        }
      ],
      "name": "setMaxDelegatorsPerAgent",
      "outputs": [],
      "stateMutability": "nonpayable",
      "type": "function"
    },
    {
      "inputs": [
        {
          "internalType": "uint256",
          "name": "amount",
          "type": "uint256"
        }
      ],
      "name": "setMinDelegation",
      "outputs": [],
      "stateMutability": "nonpayable",
      "type": "function"
    },
    {
      "inputs": [
        {
          "internalType": "uint16",
          "name": "bps",
          "type": "uint16"
        }
      ],
      "name": "setRewardShareBps",
      "outputs": [],
      "stateMutability": "nonpayable",
      "type": "function"
    },
    {
      "inputs": [
        {
          "internalType": "address",
          "name": "_stakingManager",
          "type": "address"
        }
      ],
      "name": "setStakingManager",
      "outputs": [],
      "stateMutability": "nonpayable",
      "type": "function"
    },
    {
      "inputs": [
        {
          "internalType": "address",
          "name": "_treasury",
          "type": "address"
        }
      ],
      "name": "setTreasury",
      "outputs": [],
      "stateMutability": "nonpayable",
      "type": "function"
    },
    {
      "inputs": [
        {
          "internalType": "uint256",
          "name": "seconds_",
          "type": "uint256"
        }
      ],
      "name": "setUnbondingPeriod",
      "outputs": [],
      "stateMutability": "nonpayable",
      "type": "function"
    },
    {
      "inputs": [],
      "name": "stakingManager",
      "outputs": [
        {
          "internalType": "address",
          "name": "",
          "type": "address"
        }
      ],
      "stateMutability": "view",
      "type": "function"
    },
    {
      "inputs": [],
      "name": "totalDelegatedAllAgents",
      "outputs": [
        {
          "internalType": "uint256",
          "name": "",
          "type": "uint256"
        }
      ],
      "stateMutability": "view",
      "type": "function"
    },
    {
      "inputs": [
        {
          "internalType": "address",
          "name": "newOwner",
          "type": "address"
        }
      ],
      "name": "transferOwnership",
      "outputs": [],
      "stateMutability": "nonpayable",
      "type": "function"
    },
    {
      "inputs": [],
      "name": "treasury",
      "outputs": [
        {
          "internalType": "address",
          "name": "",
          "type": "address"
        }
      ],
      "stateMutability": "view",
      "type": "function"
    },
    {
      "inputs": [],
      "name": "unbondingPeriod",
      "outputs": [
        {
          "internalType": "uint256",
          "name": "",
          "type": "uint256"
        }
      ],
      "stateMutability": "view",
      "type": "function"
    },
    {
      "inputs": [],
      "name": "unpause",
      "outputs": [],
      "stateMutability": "nonpayable",
      "type": "function"
    }
  ],
  "bytecode": "0x6080604052633b9aca006007556201518060085560326009556103e8600a553480156200002a575f80fd5b506040516200384e3803806200384e8339810160408190526200004d91620001f4565b60015f5533806200007857604051631e4fbdf760e01b81525f60048201526024015b60405180910390fd5b62000083816200017f565b506001600160a01b038216620000ea5760405162461bcd60e51b815260206004820152602560248201527f44656c6567617465645374616b696e673a20677561726420746f6b656e206973604482015264207a65726f60d81b60648201526084016200006f565b6001600160a01b0381166200014d5760405162461bcd60e51b815260206004820152602260248201527f44656c6567617465645374616b696e673a207472656173757279206973207a65604482015261726f60f01b60648201526084016200006f565b600280546001600160a01b039384166001600160a01b031991821617909155600580549290931691161790556200022a565b600180546001600160a01b03838116610100818102610100600160a81b031985161790945560405193909204169182907f8be0079c531659141344cd1fd0a4f28419497f9722a3daafe3b4186f6b6457e0905f90a35050565b80516001600160a01b0381168114620001ef575f80fd5b919050565b5f806040838503121562000206575f80fd5b6200021183620001d8565b91506200022160208401620001d8565b90509250929050565b61361680620002385f395ff3fe608060405234801561000f575f80fd5b5060043610610297575f3560e01c806361d027b3116101615780638da5cb5b116100ca578063e56588ef11610084578063e56588ef146107fa578063ed2676911461080d578063eedee5cf146108c0578063ef5cfb8c146108d3578063f0f44260146108e6578063f2fde38b146108f9575f80fd5b80638da5cb5b1461069a5780638e1a6d57146106b0578063b00bba6a146106c3578063c4d03bb9146106d6578063cf049cad146106e9578063d1da6be3146107e7575f80fd5b80637a27db571161011b5780637a27db57146106245780637a5c744f146106375780637dd3819e1461064a5780638456cb591461065d5780638b41166c146106655780638d1696c914610678575f80fd5b806361d027b3146105d157806368c1f3fe146105e45780636cf6d675146105ed5780637071cdff146105f6578063715018a614610609578063755850b814610611575f80fd5b80631f8038c711610203578063426f8bb2116101bd578063426f8bb21461045b578063473849bd146105835780634dbfd150146105965780635084984c1461059e5780635c975abb146105b15780635e7f6c89146105c8575f80fd5b80631f8038c7146103fe5780631fbd2c0d1461040757806322828cc21461041a57806328342ecf1461042d5780632c37f393146104405780633f4ba83a14610453575f80fd5b8063114eaf5511610254578063114eaf551461033357806313c366671461034657806315049a5a1461035957806318b093c0146103795780631b1cbe2a1461039b5780631b3170fb146103ae575f80fd5b8063029859921461029b578063073db382146102b757806308867ac5146102cc57806308b29d43146102ed5780630b83a727146103185780630d1cfcae14610320575b5f80fd5b6102a460075481565b6040519081526020015b60405180910390f35b6102ca6102c5366004613111565b61090c565b005b6102df6102da36600461312a565b610966565b6040516102ae9291906131bc565b6103006102fb3660046131e0565b610a16565b6040516001600160a01b0390911681526020016102ae565b6102ca610a4a565b600454610300906001600160a01b031681565b6102ca61034136600461312a565b610bad565b6102ca61035436600461312a565b610bba565b61036c610367366004613208565b610c16565b6040516102ae9190613239565b61038c610387366004613111565b610d32565b6040516102ae93929190613324565b6102ca6103a9366004613111565b610f6a565b6103e66103bc366004613111565b6001600160a01b03165f908152600c6020526040902054600160a01b90046001600160601b031690565b6040516001600160601b0390911681526020016102ae565b6102a460095481565b6102ca610415366004613366565b610fba565b600354610300906001600160a01b031681565b6102ca61043b366004613111565b611248565b6102ca61044e36600461312a565b611272565b6102ca6112d1565b61051b610469366004613111565b6040805160c0810182525f80825260208201819052918101829052606081018290526080810182905260a0810191909152506001600160a01b039081165f908152600c6020908152604091829020825160c08101845281549485168152600160a01b9094046001600160601b0390811692850192909252600181015490911691830191909152600281015460608301526003015461ffff8116608083015262010000900463ffffffff1660a082015290565b6040805182516001600160a01b031681526020808401516001600160601b03908116918301919091528383015116918101919091526060808301519082015260808083015161ffff169082015260a09182015163ffffffff169181019190915260c0016102ae565b6102ca610591366004613111565b6112e1565b6102ca611516565b6102ca6105ac366004613111565b611654565b60015460ff165b60405190151581526020016102ae565b6102a4600a5481565b600554610300906001600160a01b031681565b6102a460115481565b6102a460085481565b6102df610604366004613111565b61167c565b6102ca611832565b6102a461061f366004613111565b611843565b6103e6610632366004613208565b6118ff565b6102ca6106453660046131e0565b61195d565b6102ca6106583660046133a6565b611e73565b6102ca611fc6565b6102ca610673366004613366565b611fd6565b6105b8610686366004613111565b60066020525f908152604090205460ff1681565b60015461010090046001600160a01b0316610300565b6103006106be3660046131e0565b61242f565b6102ca6106d1366004613111565b612448565b6105b86106e4366004613208565b612472565b6107756106f736600461312a565b600b6020525f90815260409020805460018201546002830154600384015460048501546005909501546001600160a01b0394851695948416946001600160601b03600160a01b90950485169465ffffffffffff80861695600160301b8104821695600160601b91829004841695938116949190049091169160ff168a565b604080516001600160a01b039b8c1681529a90991660208b01526001600160601b03978816988a019890985265ffffffffffff95861660608a0152938516608089015291851660a08801529390931660c0860152911660e08401526101008301521515610120820152610140016102ae565b6102ca6107f5366004613366565b61249a565b600254610300906001600160a01b031681565b61087261081b366004613111565b600c6020525f908152604090208054600182015460028301546003909301546001600160a01b03831693600160a01b9093046001600160601b03908116939216919061ffff81169062010000900463ffffffff1686565b604080516001600160a01b039790971687526001600160601b0395861660208801529390941692850192909252606084015261ffff16608083015263ffffffff1660a082015260c0016102ae565b6102ca6108ce36600461312a565b6128d1565b6102ca6108e1366004613111565b612945565b6102ca6108f4366004613111565b612ab0565b6102ca610907366004613111565b612b00565b610914612b3a565b6001600160a01b0381166109435760405162461bcd60e51b815260040161093a906133c7565b60405180910390fd5b6001600160a01b03165f908152600660205260409020805460ff19166001179055565b6060805f808467ffffffffffffffff81111561098457610984613408565b6040519080825280602002602001820160405280156109ad578160200160208202803683370190505b5090505f8567ffffffffffffffff8111156109ca576109ca613408565b6040519080825280602002602001820160405280156109f3578160200160208202803683370190505b5050604080515f8082526020820190815281830190925297909650945050505050565b600e602052815f5260405f208181548110610a2f575f80fd5b5f918252602090912001546001600160a01b03169150829050565b610a52612b6d565b335f908152600d60205260408120805490915b81811015610b9f575f838281548110610a8057610a8061341c565b5f9182526020822001546001600160a01b03169150610a9f3383612b95565b5f818152600b6020526040902060058101549192509060ff16610ac457505050610b97565b6001600160a01b0383165f908152600c60205260409020610ae58282612bd9565b6002820154600160601b90046001600160601b03165f819003610b0c575050505050610b97565b6002830180546601000000000000600160c01b031916600160301b4265ffffffffffff1602179055610b4830336001600160601b038416612c4d565b6040516001600160601b03821681526001600160a01b0386169033907fdd00fd2033fdc429a3075362a89fca9fb1200899de6b9ecbfef712c795e84a919060200160405180910390a350505050505b600101610a65565b505050610bab60015f55565b565b610bb5612b3a565b600855565b610bc2612b3a565b5f8111610c115760405162461bcd60e51b815260206004820181905260248201527f44656c6567617465645374616b696e673a20616d6f756e74206973207a65726f604482015260640161093a565b600755565b60408051610140810182525f80825260208201819052918101829052606081018290526080810182905260a0810182905260c0810182905260e081018290526101008101829052610120810191909152600b5f610c738585612b95565b815260208082019290925260409081015f2081516101408101835281546001600160a01b039081168252600183015490811694820194909452600160a01b9093046001600160601b0390811692840192909252600281015465ffffffffffff8082166060860152600160301b820481166080860152600160601b91829004841660a0860152600383015493841660c0860152920490911660e083015260048101546101008301526005015460ff16151561012082015290505b92915050565b6001600160a01b0381165f908152600d60205260409020805460609182918291908067ffffffffffffffff811115610d6c57610d6c613408565b604051908082528060200260200182016040528015610d95578160200160208202803683370190505b5094508067ffffffffffffffff811115610db157610db1613408565b604051908082528060200260200182016040528015610dda578160200160208202803683370190505b5093508067ffffffffffffffff811115610df657610df6613408565b604051908082528060200260200182016040528015610e1f578160200160208202803683370190505b5092505f5b81811015610f60575f838281548110610e3f57610e3f61341c565b905f5260205f20015f9054906101000a90046001600160a01b0316905080878381518110610e6f57610e6f61341c565b60200260200101906001600160a01b031690816001600160a01b0316815250505f610e9a8983612b95565b5f818152600b6020526040902060058101549192509060ff16610ebf57505050610f58565b8060010160149054906101000a90046001600160601b0316888581518110610ee957610ee961341c565b6001600160601b039092166020928302919091018201526001600160a01b0384165f908152600c90915260409020610f22908290612da7565b878581518110610f3457610f3461341c565b60200260200101906001600160601b031690816001600160601b0316815250505050505b600101610e24565b5050509193909250565b610f72612b3a565b6001600160a01b038116610f985760405162461bcd60e51b815260040161093a906133c7565b600280546001600160a01b0319166001600160a01b0392909216919091179055565b610fc2612b6d565b335f90815260066020526040902054829060ff1680610fe95750336001600160a01b038216145b61104a5760405162461bcd60e51b815260206004820152602c60248201527f44656c6567617465645374616b696e673a206e6f7420617574686f72697a656460448201526b103234b9ba3934b13aba37b960a11b606482015260840161093a565b6001600160a01b038084165f818152600c602052604090208054909216146110c35760405162461bcd60e51b815260206004820152602660248201527f44656c6567617465645374616b696e673a20706f6f6c206e6f7420696e697469604482015265185b1a5e995960d21b606482015260840161093a565b8054600160a01b90046001600160601b031615806110e857506001600160601b038316155b156110f3575061123a565b60038101545f90612710906111159061ffff166001600160601b038716613444565b61111f919061345b565b9050806001600160601b03165f0361113857505061123a565b61114c3330836001600160601b0316612c4d565b81546001600160601b03600160a01b90910481169061117b906c0c9f2c9cd04674edea40000000908416613444565b611185919061345b565b826002015f828254611197919061347a565b90915550506001820180548291905f906111bb9084906001600160601b031661348d565b92506101000a8154816001600160601b0302191690836001600160601b03160217905550846001600160a01b03167fdecc5b7859a250763ca551166d4757c6095712a68807f03be8843a1862c54488858360405161122f9291906001600160601b0392831681529116602082015260400190565b60405180910390a250505b5061124460015f55565b5050565b611250612b3a565b600480546001600160a01b0319166001600160a01b0392909216919091179055565b61127a612b3a565b6113888111156112cc5760405162461bcd60e51b815260206004820152601d60248201527f44656c6567617465645374616b696e673a206578636565647320353025000000604482015260640161093a565b600a55565b6112d9612b3a565b610bab612e54565b6112e9612b6d565b5f6112f43383612b95565b5f818152600b6020526040902060058101549192509060ff166113295760405162461bcd60e51b815260040161093a906134b4565b60038101546001600160601b03166113915760405162461bcd60e51b815260206004820152602560248201527f44656c6567617465645374616b696e673a206e6f7468696e6720746f20636f6d604482015264706c65746560d81b606482015260840161093a565b6003810154600160601b900465ffffffffffff1642101561140b5760405162461bcd60e51b815260206004820152602e60248201527f44656c6567617465645374616b696e673a20756e626f6e64696e67207065726960448201526d1bd9081b9bdd08195b185c1cd95960921b606482015260840161093a565b60038101805471ffffffffffffffffffffffffffffffffffff19811690915560018201546001600160601b0391821691600160a01b909104165f036114aa5760058201805460ff191690556001600160a01b0384165f908152600c60205260409020600301805462010000900463ffffffff1690600261148a836134fa565b91906101000a81548163ffffffff021916908363ffffffff160217905550505b6114be3033836001600160601b0316612c4d565b6040516001600160601b03821681526001600160a01b0385169033907faaa3842ebf2fbbe5d95b415fa7ec351ef93724440b8d4efa3af7351d13f2dc3e9060200160405180910390a350505061151360015f55565b50565b61151e612b3a565b611526612b6d565b6002546040516307f6314d60e41b81523060048201526001600160a01b0390911660248201525f9061016790637f6314d0906044016020604051808303815f875af1158015611577573d5f803e3d5ffd5b505050506040513d601f19601f8201168201806040525081019061159b9190613518565b9050600781900b601614806115b45750600781900b60c2145b6116135760405162461bcd60e51b815260206004820152602a60248201527f44656c6567617465645374616b696e673a20746f6b656e206173736f636961746044820152691a5bdb8819985a5b195960b21b606482015260840161093a565b6002546040516001600160a01b03909116907f9ec89a37a2bd4990d4a31ed9c5edf4f95bd68ad0375584a1f1dcb0327d88f9fa905f90a250610bab60015f55565b61165c612b3a565b6001600160a01b03165f908152600660205260409020805460ff19169055565b6001600160a01b0381165f908152600e60205260409020805460609182918067ffffffffffffffff8111156116b3576116b3613408565b6040519080825280602002602001820160405280156116dc578160200160208202803683370190505b5093508067ffffffffffffffff8111156116f8576116f8613408565b604051908082528060200260200182016040528015611721578160200160208202803683370190505b5092505f5b8181101561182a578281815481106117405761174061341c565b905f5260205f20015f9054906101000a90046001600160a01b031685828151811061176d5761176d61341c565b60200260200101906001600160a01b031690816001600160a01b0316815250505f6117bd8483815481106117a3576117a361341c565b5f918252602090912001546001600160a01b031688612b95565b5f818152600b6020526040902060058101549192509060ff166117e0575f6117f6565b6001810154600160a01b90046001600160601b03165b8684815181106118085761180861341c565b6001600160601b03909216602092830291909101909101525050600101611726565b505050915091565b61183a612b3a565b610bab5f612ea6565b6003545f9081906001600160a01b0316156118c6576003546040516301108faf60e11b81526001600160a01b038581166004830152909116906302211f5e90602401602060405180830381865afa9250505080156118be575060408051601f3d908101601f191682019092526118bb91810190613538565b60015b156118c65790505b6001600160a01b0383165f908152600c60205260409020546118f890600160a01b90046001600160601b03168261347a565b9392505050565b5f8061190b8484612b95565b5f818152600b6020526040902060058101549192509060ff16611932575f92505050610d2c565b6001600160a01b0384165f908152600c60205260409020611954908290612da7565b95945050505050565b611965612b6d565b6003546001600160a01b031633146119cd5760405162461bcd60e51b815260206004820152602560248201527f44656c6567617465645374616b696e673a206e6f74207374616b696e67206d616044820152643730b3b2b960d91b606482015260840161093a565b612710811115611a305760405162461bcd60e51b815260206004820152602860248201527f44656c6567617465645374616b696e673a20736c617368206270732065786365604482015267656473203130302560c01b606482015260840161093a565b6001600160a01b0382165f908152600c6020526040812080549091600160a01b9091046001600160601b03169003611a685750611e6a565b6001600160a01b0383165f908152600e602052604081208054909180805b83811015611de1575f858281548110611aa157611aa161341c565b5f9182526020822001546001600160a01b03169150611ac0828b612b95565b5f818152600b6020526040902060058101549192509060ff161580611af757506001810154600160a01b90046001600160601b0316155b15611b0457505050611dd9565b60018101545f9061271090611b2a908d90600160a01b90046001600160601b0316613444565b611b34919061345b565b60018301549091506001600160601b03600160a01b90910481169082161115611b6e57506001810154600160a01b90046001600160601b03165b60038201545f906001600160601b031615611bd657600383015461271090611ba0908e906001600160601b0316613444565b611baa919061345b565b60038401549091506001600160601b039081169082161115611bd6575060038201546001600160601b03165b5f611be1828461348d565b9050806001600160601b03165f03611bfe57505050505050611dd9565b828460010160148282829054906101000a90046001600160601b0316611c24919061354f565b92506101000a8154816001600160601b0302191690836001600160601b0316021790555081846003015f8282829054906101000a90046001600160601b0316611c6d919061354f565b92506101000a8154816001600160601b0302191690836001600160601b031602179055508089611c9d919061348d565b8c549099506001600160601b03808516600160a01b909204161015611cc2575f611cdf565b8b54611cdf908490600160a01b90046001600160601b031661354f565b8c546001600160a01b0316600160a01b6001600160601b0392831602178d556011549084161115611d10575f611d27565b826001600160601b0316601154611d27919061356f565b60115587611d3481613582565b6001860154909950600160a01b90046001600160601b03161590508015611d66575060038401546001600160601b0316155b15611dd25760058401805460ff1916905560038c015462010000900463ffffffff16611d92575f611daf565b60038c0154611daf9060019062010000900463ffffffff166135a4565b8c60030160026101000a81548163ffffffff021916908363ffffffff1602179055505b5050505050505b600101611a86565b506001600160601b03821615611e1257600554611e129030906001600160a01b03166001600160601b038516612c4d565b604080516001600160601b038416815263ffffffff831660208201526001600160a01b038916917f73a1a324ecb322c11617bc3aa6d6c679690411330fb504a76203c297dac8b34f910160405180910390a250505050505b61124460015f55565b60648161ffff1610158015611e8e57506113888161ffff1611155b611ef05760405162461bcd60e51b815260206004820152602d60248201527f44656c6567617465645374616b696e673a20627073206f7574206f662072616e60448201526c6765205b3130302c353030305d60981b606482015260840161093a565b335f818152600c60205260409020805490916001600160a01b0390911614611f6a5760405162461bcd60e51b815260206004820152602760248201527f44656c6567617465645374616b696e673a206e6f7420612072656769737465726044820152661959081c1bdbdb60ca1b606482015260840161093a565b60038101805461ffff84811661ffff19831681179093556040805191909216808252602082019390935233917fbdf481a31c32fac88dab2440dcd67f45d33b63914ab742d23afdb0f6b77688fb910160405180910390a2505050565b611fce612b3a565b610bab612eff565b611fde612b6d565b611fe6612f3a565b600754816001600160601b031610156120545760405162461bcd60e51b815260206004820152602a60248201527f44656c6567617465645374616b696e673a2062656c6f77206d696e696d756d206044820152693232b632b3b0ba34b7b760b11b606482015260840161093a565b6004546001600160a01b03161561212a57600480546040516332f0f23360e11b81526001600160a01b03858116938201939093529116906365e1e46690602401602060405180830381865afa1580156120af573d5f803e3d5ffd5b505050506040513d601f19601f820116820180604052508101906120d391906135c1565b61212a5760405162461bcd60e51b815260206004820152602260248201527f44656c6567617465645374616b696e673a206167656e74206e6f742061637469604482015261766560f01b606482015260840161093a565b6001600160a01b038083165f908152600c60205260409020805490911661217f5780546001600160a01b0319166001600160a01b038416178155600a5460038201805461ffff191661ffff9092169190911790555b5f61218a3385612b95565b5f818152600b6020526040902060058101549192509060ff166122d057600954600384015462010000900463ffffffff161061221a5760405162461bcd60e51b815260206004820152602960248201527f44656c6567617465645374616b696e673a206167656e74206174206d61782064604482015268656c656761746f727360b81b606482015260840161093a565b8054336001600160a01b031991821681178355600180840180549093166001600160a01b038916179092556002808401805465ffffffffffff19164265ffffffffffff1617905560058401805460ff19169093179092559084015460048301556122849086612f5e565b61228e8533613019565b60038301805462010000900463ffffffff169060026122ac83613582565b91906101000a81548163ffffffff021916908363ffffffff160217905550506122da565b6122da8184612bd9565b6122ee3330866001600160601b0316612c4d565b838160010160148282829054906101000a90046001600160601b0316612314919061348d565b92506101000a8154816001600160601b0302191690836001600160601b0316021790555083835f0160148282829054906101000a90046001600160601b031661235d919061348d565b92506101000a8154816001600160601b0302191690836001600160601b03160217905550836001600160601b031660115f82825461239b919061347a565b90915550506002810180546bffffffffffff0000000000001916600160301b4265ffffffffffff16021790558254604080516001600160601b038088168252600160a01b90930490921660208301526001600160a01b0387169133917f88559326e9febea193bc0f89edd01159309ab1eada93de392c56f1970d63918d91015b60405180910390a350505061124460015f55565b600d602052815f5260405f208181548110610a2f575f80fd5b612450612b3a565b600380546001600160a01b0319166001600160a01b0392909216919091179055565b5f8061247e8484612b95565b5f908152600b602052604090206005015460ff16949350505050565b6124a2612b6d565b6124aa612f3a565b5f6124b53384612b95565b5f818152600b6020526040902060058101549192509060ff166124ea5760405162461bcd60e51b815260040161093a906134b4565b5f836001600160601b0316116125425760405162461bcd60e51b815260206004820181905260248201527f44656c6567617465645374616b696e673a20616d6f756e74206973207a65726f604482015260640161093a565b60018101546001600160601b03600160a01b909104811690841611156125bd5760405162461bcd60e51b815260206004820152602a60248201527f44656c6567617465645374616b696e673a20657863656564732064656c6567616044820152691d195908185b5bdd5b9d60b21b606482015260840161093a565b60038101546001600160601b0316156126305760405162461bcd60e51b815260206004820152602f60248201527f44656c6567617465645374616b696e673a20756e626f6e64696e6720616c726560448201526e61647920696e2070726f677265737360881b606482015260840161093a565b6001600160a01b0384165f908152600c602052604090206126518282612bd9565b838260010160148282829054906101000a90046001600160601b0316612677919061354f565b92506101000a8154816001600160601b0302191690836001600160601b0316021790555083826003015f6101000a8154816001600160601b0302191690836001600160601b03160217905550600854426126d1919061347a565b60038301805465ffffffffffff92909216600160601b0265ffffffffffff60601b199092169190911790558054849082906014906127219084906001600160601b03600160a01b9091041661354f565b92506101000a8154816001600160601b0302191690836001600160601b03160217905550836001600160601b031660115f82825461275f919061356f565b90915550506001820154600160a01b90046001600160601b0316158015906127a2575060075460018301546001600160601b03918216600160a01b909104909116105b15612872576001820180546001600160a01b0381169091556003830180546001600160601b03600160a01b9093048316928392915f916127e49185911661348d565b92506101000a8154816001600160601b0302191690836001600160601b0316021790555080825f0160148282829054906101000a90046001600160601b031661282d919061354f565b92506101000a8154816001600160601b0302191690836001600160601b03160217905550806001600160601b031660115f82825461286b919061356f565b9091555050505b6003820154604080516001600160601b0387168152600160601b90920465ffffffffffff1660208301526001600160a01b0387169133917fc11d240f95cbd83f6c4eadbdbf590ecfee2437112cc5a587fef7cc1c0ef44e59910161241b565b6128d9612b3a565b5f811180156128e9575060c88111155b6129405760405162461bcd60e51b815260206004820152602260248201527f44656c6567617465645374616b696e673a206d6178206f7574206f662072616e604482015261676560f01b606482015260840161093a565b600955565b61294d612b6d565b5f6129583383612b95565b5f818152600b6020526040902060058101549192509060ff1661298d5760405162461bcd60e51b815260040161093a906134b4565b6001600160a01b0383165f908152600c602052604090206129ae8282612bd9565b6002820154600160601b90046001600160601b031680612a1e5760405162461bcd60e51b815260206004820152602560248201527f44656c6567617465645374616b696e673a206e6f207265776172647320746f20604482015264636c61696d60d81b606482015260840161093a565b6002830180546601000000000000600160c01b031916600160301b4265ffffffffffff1602179055612a5a30336001600160601b038416612c4d565b6040516001600160601b03821681526001600160a01b0386169033907fdd00fd2033fdc429a3075362a89fca9fb1200899de6b9ecbfef712c795e84a919060200160405180910390a35050505061151360015f55565b612ab8612b3a565b6001600160a01b038116612ade5760405162461bcd60e51b815260040161093a906133c7565b600580546001600160a01b0319166001600160a01b0392909216919091179055565b612b08612b3a565b6001600160a01b038116612b3157604051631e4fbdf760e01b81525f600482015260240161093a565b61151381612ea6565b6001546001600160a01b03610100909104163314610bab5760405163118cdaa760e01b815233600482015260240161093a565b60025f5403612b8f57604051633ee5aeb560e01b815260040160405180910390fd5b60025f55565b6040516001600160601b0319606084811b8216602084015283901b1660348201525f9060480160405160208183030381529060405280519060200120905092915050565b5f612be48383612da7565b90506001600160601b03811615612c40578083600201600c8282829054906101000a90046001600160601b0316612c1b919061348d565b92506101000a8154816001600160601b0302191690836001600160601b031602179055505b5060020154600490910155565b677fffffffffffffff811115612cb45760405162461bcd60e51b815260206004820152602660248201527f44656c6567617465645374616b696e673a20616d6f756e742065786365656473604482015265081a5b9d0d8d60d21b606482015260840161093a565b60025460405163eca3691760e01b81526001600160a01b03918216600482015284821660248201529083166044820152600782900b60648201525f906101679063eca36917906084016020604051808303815f875af1158015612d19573d5f803e3d5ffd5b505050506040513d601f19601f82011682018060405250810190612d3d9190613518565b9050600781900b601614612da15760405162461bcd60e51b815260206004820152602560248201527f44656c6567617465645374616b696e673a20485453207472616e736665722066604482015264185a5b195960da1b606482015260840161093a565b50505050565b60018201545f90600160a01b90046001600160601b03168103612dcb57505f610d2c565b5f83600401548360020154612de0919061356f565b9050805f03612df2575f915050610d2c565b60018401545f906c0c9f2c9cd04674edea4000000090612e23908490600160a01b90046001600160601b0316613444565b612e2d919061345b565b90506001600160601b038111612e435780611954565b506001600160601b03949350505050565b612e5c6130d3565b6001805460ff191690557f5db9ee0a495bf2e6ff9c91a7834c1ba4fdd244a5e8aa4e537bd38aeae4b073aa335b6040516001600160a01b03909116815260200160405180910390a1565b600180546001600160a01b03838116610100818102610100600160a81b031985161790945560405193909204169182907f8be0079c531659141344cd1fd0a4f28419497f9722a3daafe3b4186f6b6457e0905f90a35050565b612f07612f3a565b6001805460ff1916811790557f62e78cea01bee320cd4e420270b5ea74000d11b0c9f74754ebdbfc544b05a25833612e89565b60015460ff1615610bab5760405163d93c066560e01b815260040160405180910390fd5b60405161646160f01b60208201526001600160601b0319606084811b8216602284015283901b1660368201525f90604a0160408051601f1981840301815291815281516020928301205f818152600f90935291205490915060ff16613014576001600160a01b038381165f908152600d602090815260408083208054600180820183559185528385200180546001600160a01b03191695881695909517909455848352600f9091529020805460ff191690911790555b505050565b60405161185960f21b60208201526001600160601b0319606084811b8216602284015283901b1660368201525f90604a0160408051601f1981840301815291815281516020928301205f818152601090935291205490915060ff16613014576001600160a01b039283165f908152600e602090815260408083208054600180820183559185528385200180546001600160a01b0319169690971695909517909555918152601090915291909120805460ff19169091179055565b60015460ff16610bab57604051638dfc202b60e01b815260040160405180910390fd5b80356001600160a01b038116811461310c575f80fd5b919050565b5f60208284031215613121575f80fd5b6118f8826130f6565b5f6020828403121561313a575f80fd5b5035919050565b5f815180845260208085019450602084015f5b838110156131795781516001600160a01b031687529582019590820190600101613154565b509495945050505050565b5f815180845260208085019450602084015f5b838110156131795781516001600160601b031687529582019590820190600101613197565b604081525f6131ce6040830185613141565b82810360208401526119548185613184565b5f80604083850312156131f1575f80fd5b6131fa836130f6565b946020939093013593505050565b5f8060408385031215613219575f80fd5b613222836130f6565b9150613230602084016130f6565b90509250929050565b81516001600160a01b031681526101408101602083015161326560208401826001600160a01b03169052565b50604083015161328060408401826001600160601b03169052565b50606083015161329a606084018265ffffffffffff169052565b5060808301516132b4608084018265ffffffffffff169052565b5060a08301516132cf60a08401826001600160601b03169052565b5060c08301516132ea60c08401826001600160601b03169052565b5060e083015161330460e084018265ffffffffffff169052565b506101008381015190830152610120928301511515929091019190915290565b606081525f6133366060830186613141565b82810360208401526133488186613184565b9050828103604084015261335c8185613184565b9695505050505050565b5f8060408385031215613377575f80fd5b613380836130f6565b915060208301356001600160601b038116811461339b575f80fd5b809150509250929050565b5f602082840312156133b6575f80fd5b813561ffff811681146118f8575f80fd5b60208082526021908201527f44656c6567617465645374616b696e673a2061646472657373206973207a65726040820152606f60f81b606082015260800190565b634e487b7160e01b5f52604160045260245ffd5b634e487b7160e01b5f52603260045260245ffd5b634e487b7160e01b5f52601160045260245ffd5b8082028115828204841417610d2c57610d2c613430565b5f8261347557634e487b7160e01b5f52601260045260245ffd5b500490565b80820180821115610d2c57610d2c613430565b6001600160601b038181168382160190808211156134ad576134ad613430565b5092915050565b60208082526026908201527f44656c6567617465645374616b696e673a206e6f206163746976652064656c6560408201526533b0ba34b7b760d11b606082015260800190565b5f63ffffffff82168061350f5761350f613430565b5f190192915050565b5f60208284031215613528575f80fd5b81518060070b81146118f8575f80fd5b5f60208284031215613548575f80fd5b5051919050565b6001600160601b038281168282160390808211156134ad576134ad613430565b81810381811115610d2c57610d2c613430565b5f63ffffffff80831681810361359a5761359a613430565b6001019392505050565b63ffffffff8281168282160390808211156134ad576134ad613430565b5f602082840312156135d1575f80fd5b815180151581146118f8575f80fdfea26469706673582212206bd691ed180a8af1dd8803966258ea742bef1e993817781dc522811d0e4f8c4d64736f6c63430008180033",
  "linkReferences": {},
  "deployedLinkReferences": {}
}