{
  "_format": "hh-sol-artifact-1",
  "contractName": "DelegatedStaking",
  "sourceName": "contracts/DelegatedStaking.sol",
  "abi": [
    {
      "inputs": [
        {
          "internalType": "address",
          "name": "_guardToken",
          "type": "address"
        },
        {
          "internalType": "address",
          "name": "_treasury",
          "type": "address"
        }
      ],
      "stateMutability": "nonpayable",
      "type": "constructor"
    },
    {
      "inputs": [],
      "name": "EnforcedPause",
      "type": "error"
    },
    {
      "inputs": [],
      "name": "ExpectedPause",
      "type": "error"
    },
    {
      "inputs": [
        {
          "internalType": "address",
          "name": "owner",
          "type": "address"
        }
      ],
      "name": "OwnableInvalidOwner",
      "type": "error"
    },
    {
      "inputs": [
        {
          "internalType": "address",
          "name": "account",
          "type": "address"
        }
      ],
      "name": "OwnableUnauthorizedAccount",
      "type": "error"
    },
    {
      "inputs": [],
      "name": "ReentrancyGuardReentrantCall",
      "type": "error"
    },
    {
      "anonymous": false,
      "inputs": [
        {
          "indexed": true,
          "internalType": "address",
          "name": "delegator",
          "type": "address"
        },
        {
          "indexed": true,
          "internalType": "address",
          "name": "agent",
          "type": "address"
        },
        {
          "indexed": false,
          "internalType": "uint96",
          "name": "amount",
          "type": "uint96"
        },
        {
          "indexed": false,
          "internalType": "uint96",
          "name": "newTotalDelegated",
          "type": "uint96"
        }
      ],
      "name": "Delegated",
      "type": "event"
    },
    {
      "anonymous": false,
      "inputs": [
        {
          "indexed": true,
          "internalType": "address",
          "name": "agent",
          "type": "address"
        },
        {
          "indexed": false,
          "internalType": "uint96",
          "name": "totalSlashed",
          "type": "uint96"
        },
        {
          "indexed": false,
          "internalType": "uint32",
          "name": "delegatorCount",
          "type": "uint32"
        }
      ],
      "name": "DelegationSlashed",
      "type": "event"
    },
    {
      "anonymous": false,
      "inputs": [
        {
          "indexed": true,
          "internalType": "address",
          "name": "token",
          "type": "address"
        }
      ],
      "name": "GuardTokenAssociated",
      "type": "event"
    },
    {
      "anonymous": false,
      "inputs": [
        {
          "indexed": true,
          "internalType": "address",
          "name": "previousOwner",
          "type": "address"
        },
        {
          "indexed": true,
          "internalType": "address",
          "name": "newOwner",
          "type": "address"
        }
      ],
      "name": "OwnershipTransferred",
      "type": "event"
    },
    {
      "anonymous": false,
      "inputs": [
        {
          "indexed": false,
          "internalType": "address",
          "name": "account",
          "type": "address"
        }
      ],
      "name": "Paused",
      "type": "event"
    },
    {
      "anonymous": false,
      "inputs": [
        {
          "indexed": true,
          "internalType": "address",
          "name": "agent",
          "type": "address"
        },
        {
          "indexed": false,
          "internalType": "uint16",
          "name": "oldBps",
          "type": "uint16"
        },
        {
          "indexed": false,
          "internalType": "uint16",
          "name": "newBps",
          "type": "uint16"
        }
      ],
      "name": "RewardShareUpdated",
      "type": "event"
    },
    {
      "anonymous": false,
      "inputs": [
        {
          "indexed": true,
          "internalType": "address",
          "name": "delegator",
          "type": "address"
        },
        {
          "indexed": true,
          "internalType": "address",
          "name": "agent",
          "type": "address"
        },
        {
          "indexed": false,
          "internalType": "uint96",
          "name": "amount",
          "type": "uint96"
        }
      ],
      "name": "RewardsClaimed",
      "type": "event"
    },
    {
      "anonymous": false,
      "inputs": [
        {
          "indexed": true,
          "internalType": "address",
          "name": "agent",
          "type": "address"
        },
        {
          "indexed": false,
          "internalType": "uint96",
          "name": "totalAmount",
          "type": "uint96"
        },
        {
          "indexed": false,
          "internalType": "uint96",
          "name": "delegatorShare",
          "type": "uint96"
        }
      ],
      "name": "RewardsDistributed",
      "type": "event"
    },
    {
      "anonymous": false,
      "inputs": [
        {
          "indexed": true,
          "internalType": "address",
          "name": "delegator",
          "type": "address"
        },
        {
          "indexed": true,
          "internalType": "address",
          "name": "agent",
          "type": "address"
        },
        {
          "indexed": false,
          "internalType": "uint96",
          "name": "amount",
          "type": "uint96"
        }
      ],
      "name": "UndelegationCompleted",
      "type": "event"
    },
    {
      "anonymous": false,
      "inputs": [
        {
          "indexed": true,
          "internalType": "address",
          "name": "delegator",
          "type": "address"
        },
        {
          "indexed": true,
          "internalType": "address",
          "name": "agent",
          "type": "address"
        },
        {
          "indexed": false,
          "internalType": "uint96",
          "name": "amount",
          "type": "uint96"
        },
        {
          "indexed": false,
          "internalType": "uint48",
          "name": "completesAt",
          "type": "uint48"
        }
      ],
      "name": "UndelegationRequested",
      "type": "event"
    },
    {
      "anonymous": false,
      "inputs": [
        {
          "indexed": false,
          "internalType": "address",
          "name": "account",
          "type": "address"
        }
      ],
      "name": "Unpaused",
      "type": "event"
    },
    {
      "inputs": [
        {
          "internalType": "address",
          "name": "distributor",
          "type": "address"
        }
      ],
      "name": "addAuthorizedDistributor",
      "outputs": [],
      "stateMutability": "nonpayable",
      "type": "function"
    },
    {
      "inputs": [
        {
          "internalType": "address",
          "name": "",
          "type": "address"
        },
        {
          "internalType": "uint256",
          "name": "",
          "type": "uint256"
        }
      ],
      "name": "agentDelegators",
      "outputs": [
        {
          "internalType": "address",
          "name": "",
          "type": "address"
        }
      ],
      "stateMutability": "view",
      "type": "function"
    },
    {
      "inputs": [
        {
          "internalType": "address",
          "name": "",
          "type": "address"
        }
      ],
      "name": "agentPools",
      "outputs": [
        {
          "internalType": "address",
          "name": "agent",
          "type": "address"
        },
        {
          "internalType": "uint96",
          "name": "totalDelegated",
          "type": "uint96"
        },
        {
          "internalType": "uint96",
          "name": "totalRewardsAccrued",
          "type": "uint96"
        },
        {
          "internalType": "uint256",
          "name": "rewardPerTokStored",
          "type": "uint256"
        },
        {
          "internalType": "uint16",
          "name": "rewardShareBps",
          "type": "uint16"
        },
        {
          "internalType": "uint32",
          "name": "delegatorCount",
          "type": "uint32"
        }
      ],
      "stateMutability": "view",
      "type": "function"
    },
    {
      "inputs": [],
      "name": "agentRegistry",
      "outputs": [
        {
          "internalType": "address",
          "name": "",
          "type": "address"
        }
      ],
      "stateMutability": "view",
      "type": "function"
    },
    {
      "inputs": [],
      "name": "associateGuardToken",
      "outputs": [],
      "stateMutability": "nonpayable",
      "type": "function"
    },
    {
      "inputs": [
        {
          "internalType": "address",
          "name": "",
          "type": "address"
        }
      ],
      "name": "authorizedDistributors",
      "outputs": [
        {
          "internalType": "bool",
          "name": "",
          "type": "bool"
        }
      ],
      "stateMutability": "view",
      "type": "function"
    },
    {
      "inputs": [],
      "name": "claimAllRewards",
      "outputs": [],
      "stateMutability": "nonpayable",
      "type": "function"
    },
    {
      "inputs": [],
      "name": "claimAllRewardsAsHbar",
      "outputs": [],
      "stateMutability": "nonpayable",
      "type": "function"
    },
    {
      "inputs": [
        {
          "internalType": "address",
          "name": "agent",
          "type": "address"
        }
      ],
      "name": "claimRewards",
      "outputs": [],
      "stateMutability": "nonpayable",
      "type": "function"
    },
    {
      "inputs": [
        {
          "internalType": "address",
          "name": "agent",
          "type": "address"
        }
      ],
      "name": "claimRewardsAsHbar",
      "outputs": [],
      "stateMutability": "nonpayable",
      "type": "function"
    },
    {
      "inputs": [
        {
          "internalType": "address",
          "name": "agent",
          "type": "address"
        }
      ],
      "name": "completeUndelegate",
      "outputs": [],
      "stateMutability": "nonpayable",
      "type": "function"
    },
    {
      "inputs": [
        {
          "internalType": "address",
          "name": "agent",
          "type": "address"
        }
      ],
      "name": "completeUndelegateToHbar",
      "outputs": [],
      "stateMutability": "nonpayable",
      "type": "function"
    },
    {
      "inputs": [],
      "name": "defaultRewardBps",
      "outputs": [
        {
          "internalType": "uint256",
          "name": "",
          "type": "uint256"
        }
      ],
      "stateMutability": "view",
      "type": "function"
    },
    {
      "inputs": [
        {
          "internalType": "address",
          "name": "agent",
          "type": "address"
        },
        {
          "internalType": "uint96",
          "name": "amount",
          "type": "uint96"
        }
      ],
      "name": "delegate",
      "outputs": [],
      "stateMutability": "nonpayable",
      "type": "function"
    },
    {
      "inputs": [
        {
          "internalType": "address",
          "name": "agent",
          "type": "address"
        }
      ],
      "name": "delegateWithHbar",
      "outputs": [],
      "stateMutability": "payable",
      "type": "function"
    },
    {
      "inputs": [
        {
          "internalType": "bytes32",
          "name": "",
          "type": "bytes32"
        }
      ],
      "name": "delegations",
      "outputs": [
        {
          "internalType": "address",
          "name": "delegator",
          "type": "address"
        },
        {
          "internalType": "address",
          "name": "agent",
          "type": "address"
        },
        {
          "internalType": "uint96",
          "name": "amount",
          "type": "uint96"
        },
        {
          "internalType": "uint48",
          "name": "delegatedAt",
          "type": "uint48"
        },
        {
          "internalType": "uint48",
          "name": "lastRewardClaimAt",
          "type": "uint48"
        },
        {
          "internalType": "uint96",
          "name": "pendingRewards",
          "type": "uint96"
        },
        {
          "internalType": "uint96",
          "name": "unbondingAmount",
          "type": "uint96"
        },
        {
          "internalType": "uint48",
          "name": "unbondingCompleteAt",
          "type": "uint48"
        },
        {
          "internalType": "uint256",
          "name": "rewardPerTokenPaid",
          "type": "uint256"
        },
        {
          "internalType": "bool",
          "name": "active",
          "type": "bool"
        }
      ],
      "stateMutability": "view",
      "type": "function"
    },
    {
      "inputs": [
        {
          "internalType": "address",
          "name": "",
          "type": "address"
        },
        {
          "internalType": "uint256",
          "name": "",
          "type": "uint256"
        }
      ],
      "name": "delegatorAgents",
      "outputs": [
        {
          "internalType": "address",
          "name": "",
          "type": "address"
        }
      ],
      "stateMutability": "view",
      "type": "function"
    },
    {
      "inputs": [
        {
          "internalType": "address",
          "name": "agent",
          "type": "address"
        },
        {
          "internalType": "uint96",
          "name": "amount",
          "type": "uint96"
        }
      ],
      "name": "distributeRewards",
      "outputs": [],
      "stateMutability": "nonpayable",
      "type": "function"
    },
    {
      "inputs": [
        {
          "internalType": "address",
          "name": "agent",
          "type": "address"
        }
      ],
      "name": "getAgentDelegators",
      "outputs": [
        {
          "internalType": "address[]",
          "name": "delegators_",
          "type": "address[]"
        },
        {
          "internalType": "uint96[]",
          "name": "amounts",
          "type": "uint96[]"
        }
      ],
      "stateMutability": "view",
      "type": "function"
    },
    {
      "inputs": [
        {
          "internalType": "address",
          "name": "agent",
          "type": "address"
        }
      ],
      "name": "getAgentPool",
      "outputs": [
        {
          "components": [
            {
              "internalType": "address",
              "name": "agent",
              "type": "address"
            },
            {
              "internalType": "uint96",
              "name": "totalDelegated",
              "type": "uint96"
            },
            {
              "internalType": "uint96",
              "name": "totalRewardsAccrued",
              "type": "uint96"
            },
            {
              "internalType": "uint256",
              "name": "rewardPerTokStored",
              "type": "uint256"
            },
            {
              "internalType": "uint16",
              "name": "rewardShareBps",
              "type": "uint16"
            },
            {
              "internalType": "uint32",
              "name": "delegatorCount",
              "type": "uint32"
            }
          ],
          "internalType": "struct DelegatedStaking.AgentDelegationPool",
          "name": "",
          "type": "tuple"
        }
      ],
      "stateMutability": "view",
      "type": "function"
    },
    {
      "inputs": [
        {
          "internalType": "address",
          "name": "delegator",
          "type": "address"
        },
        {
          "internalType": "address",
          "name": "agent",
          "type": "address"
        }
      ],
      "name": "getDelegation",
      "outputs": [
        {
          "components": [
            {
              "internalType": "address",
              "name": "delegator",
              "type": "address"
            },
            {
              "internalType": "address",
              "name": "agent",
              "type": "address"
            },
            {
              "internalType": "uint96",
              "name": "amount",
              "type": "uint96"
            },
            {
              "internalType": "uint48",
              "name": "delegatedAt",
              "type": "uint48"
            },
            {
              "internalType": "uint48",
              "name": "lastRewardClaimAt",
              "type": "uint48"
            },
            {
              "internalType": "uint96",
              "name": "pendingRewards",
              "type": "uint96"
            },
            {
              "internalType": "uint96",
              "name": "unbondingAmount",
              "type": "uint96"
            },
            {
              "internalType": "uint48",
              "name": "unbondingCompleteAt",
              "type": "uint48"
            },
            {
              "internalType": "uint256",
              "name": "rewardPerTokenPaid",
              "type": "uint256"
            },
            {
              "internalType": "bool",
              "name": "active",
              "type": "bool"
            }
          ],
          "internalType": "struct DelegatedStaking.Delegation",
          "name": "",
          "type": "tuple"
        }
      ],
      "stateMutability": "view",
      "type": "function"
    },
    {
      "inputs": [
        {
          "internalType": "address",
          "name": "delegator",
          "type": "address"
        }
      ],
      "name": "getDelegatorPortfolio",
      "outputs": [
        {
          "internalType": "address[]",
          "name": "agents_",
          "type": "address[]"
        },
        {
          "internalType": "uint96[]",
          "name": "amounts",
          "type": "uint96[]"
        },
        {
          "internalType": "uint96[]",
          "name": "pendingRewards_",
          "type": "uint96[]"
        }
      ],
      "stateMutability": "view",
      "type": "function"
    },
    {
      "inputs": [
        {
          "internalType": "address",
          "name": "agent",
          "type": "address"
        }
      ],
      "name": "getEffectiveBacking",
      "outputs": [
        {
          "internalType": "uint256",
          "name": "",
          "type": "uint256"
        }
      ],
      "stateMutability": "view",
      "type": "function"
    },
    {
      "inputs": [
        {
          "internalType": "address",
          "name": "delegator",
          "type": "address"
        },
        {
          "internalType": "address",
          "name": "agent",
          "type": "address"
        }
      ],
      "name": "getPendingRewards",
      "outputs": [
        {
          "internalType": "uint96",
          "name": "",
          "type": "uint96"
        }
      ],
      "stateMutability": "view",
      "type": "function"
    },
    {
      "inputs": [
        {
          "internalType": "uint256",
          "name": "maxResults",
          "type": "uint256"
        }
      ],
      "name": "getTopAgentsByDelegation",
      "outputs": [
        {
          "internalType": "address[]",
          "name": "agents_",
          "type": "address[]"
        },
        {
          "internalType": "uint96[]",
          "name": "totals",
          "type": "uint96[]"
        }
      ],
      "stateMutability": "view",
      "type": "function"
    },
    {
      "inputs": [
        {
          "internalType": "address",
          "name": "agent",
          "type": "address"
        }
      ],
      "name": "getTotalDelegatedToAgent",
      "outputs": [
        {
          "internalType": "uint96",
          "name": "",
          "type": "uint96"
        }
      ],
      "stateMutability": "view",
      "type": "function"
    },
    {
      "inputs": [],
      "name": "guardToken",
      "outputs": [
        {
          "internalType": "address",
          "name": "",
          "type": "address"
        }
      ],
      "stateMutability": "view",
      "type": "function"
    },
    {
      "inputs": [],
      "name": "hbarPool",
      "outputs": [
        {
          "internalType": "address",
          "name": "",
          "type": "address"
        }
      ],
      "stateMutability": "view",
      "type": "function"
    },
    {
      "inputs": [
        {
          "internalType": "address",
          "name": "delegator",
          "type": "address"
        },
        {
          "internalType": "address",
          "name": "agent",
          "type": "address"
        }
      ],
      "name": "isDelegating",
      "outputs": [
        {
          "internalType": "bool",
          "name": "",
          "type": "bool"
        }
      ],
      "stateMutability": "view",
      "type": "function"
    },
    {
      "inputs": [],
      "name": "maxDelegatorsPerAgent",
      "outputs": [
        {
          "internalType": "uint256",
          "name": "",
          "type": "uint256"
        }
      ],
      "stateMutability": "view",
      "type": "function"
    },
    {
      "inputs": [],
      "name": "minDelegation",
      "outputs": [
        {
          "internalType": "uint256",
          "name": "",
          "type": "uint256"
        }
      ],
      "stateMutability": "view",
      "type": "function"
    },
    {
      "inputs": [],
      "name": "owner",
      "outputs": [
        {
          "internalType": "address",
          "name": "",
          "type": "address"
        }
      ],
      "stateMutability": "view",
      "type": "function"
    },
    {
      "inputs": [],
      "name": "pause",
      "outputs": [],
      "stateMutability": "nonpayable",
      "type": "function"
    },
    {
      "inputs": [],
      "name": "paused",
      "outputs": [
        {
          "internalType": "bool",
          "name": "",
          "type": "bool"
        }
      ],
      "stateMutability": "view",
      "type": "function"
    },
    {
      "inputs": [
        {
          "internalType": "address",
          "name": "agent",
          "type": "address"
        },
        {
          "internalType": "uint256",
          "name": "slashBps",
          "type": "uint256"
        }
      ],
      "name": "propagateSlash",
      "outputs": [],
      "stateMutability": "nonpayable",
      "type": "function"
    },
    {
      "inputs": [
        {
          "internalType": "address",
          "name": "distributor",
          "type": "address"
        }
      ],
      "name": "removeAuthorizedDistributor",
      "outputs": [],
      "stateMutability": "nonpayable",
      "type": "function"
    },
    {
      "inputs": [],
      "name": "renounceOwnership",
      "outputs": [],
      "stateMutability": "nonpayable",
      "type": "function"
    },
    {
      "inputs": [
        {
          "internalType": "address",
          "name": "agent",
          "type": "address"
        },
        {
          "internalType": "uint96",
          "name": "amount",
          "type": "uint96"
        }
      ],
      "name": "requestUndelegate",
      "outputs": [],
      "stateMutability": "nonpayable",
      "type": "function"
    },
    {
      "inputs": [
        {
          "internalType": "address",
          "name": "_agentRegistry",
          "type": "address"
        }
      ],
      "name": "setAgentRegistry",
      "outputs": [],
      "stateMutability": "nonpayable",
      "type": "function"
    },
    {
      "inputs": [
        {
          "internalType": "uint256",
          "name": "bps",
          "type": "uint256"
        }
      ],
      "name": "setDefaultRewardBps",
      "outputs": [],
      "stateMutability": "nonpayable",
      "type": "function"
    },
    {
      "inputs": [
        {
          "internalType": "address",
          "name": "_guardToken",
          "type": "address"
        }
      ],
      "name": "setGuardToken",
      "outputs": [],
      "stateMutability": "nonpayable",
      "type": "function"
    },
    {
      "inputs": [
        {
          "internalType": "address",
          "name": "_hbarPool",
          "type": "address"
        }
      ],
      "name": "setHbarPool",
      "outputs": [],
      "stateMutability": "nonpayable",
      "type": "function"
    },
    {
      "inputs": [
        {
          "internalType": "uint256",
          "name": "max",
          "type": "uint256"
        }
      ],
      "name": "setMaxDelegatorsPerAgent",
      "outputs": [],
      "stateMutability": "nonpayable",
      "type": "function"
    },
    {
      "inputs": [
        {
          "internalType": "uint256",
          "name": "amount",
          "type": "uint256"
        }
      ],
      "name": "setMinDelegation",
      "outputs": [],
      "stateMutability": "nonpayable",
      "type": "function"
    },
    {
      "inputs": [
        {
          "internalType": "uint16",
          "name": "bps",
          "type": "uint16"
        }
      ],
      "name": "setRewardShareBps",
      "outputs": [],
      "stateMutability": "nonpayable",
      "type": "function"
    },
    {
      "inputs": [
        {
          "internalType": "address",
          "name": "_stakingManager",
          "type": "address"
        }
      ],
      "name": "setStakingManager",
      "outputs": [],
      "stateMutability": "nonpayable",
      "type": "function"
    },
    {
      "inputs": [
        {
          "internalType": "address",
          "name": "_treasury",
          "type": "address"
        }
      ],
      "name": "setTreasury",
      "outputs": [],
      "stateMutability": "nonpayable",
      "type": "function"
    },
    {
      "inputs": [
        {
          "internalType": "uint256",
          "name": "seconds_",
          "type": "uint256"
        }
      ],
      "name": "setUnbondingPeriod",
      "outputs": [],
      "stateMutability": "nonpayable",
      "type": "function"
    },
    {
      "inputs": [],
      "name": "stakingManager",
      "outputs": [
        {
          "internalType": "address",
          "name": "",
          "type": "address"
        }
      ],
      "stateMutability": "view",
      "type": "function"
    },
    {
      "inputs": [],
      "name": "totalDelegatedAllAgents",
      "outputs": [
        {
          "internalType": "uint256",
          "name": "",
          "type": "uint256"
        }
      ],
      "stateMutability": "view",
      "type": "function"
    },
    {
      "inputs": [
        {
          "internalType": "address",
          "name": "newOwner",
          "type": "address"
        }
      ],
      "name": "transferOwnership",
      "outputs": [],
      "stateMutability": "nonpayable",
      "type": "function"
    },
    {
      "inputs": [],
      "name": "treasury",
      "outputs": [
        {
          "internalType": "address",
          "name": "",
          "type": "address"
        }
      ],
      "stateMutability": "view",
      "type": "function"
    },
    {
      "inputs": [],
      "name": "unbondingPeriod",
      "outputs": [
        {
          "internalType": "uint256",
          "name": "",
          "type": "uint256"
        }
      ],
      "stateMutability": "view",
      "type": "function"
    },
    {
      "inputs": [],
      "name": "unpause",
      "outputs": [],
      "stateMutability": "nonpayable",
      "type": "function"
    }
  ],
  "bytecode": "0x6080604052633b9aca00600855620151806009556032600a556103e8600b553480156200002a575f80fd5b506040516200453f3803806200453f8339810160408190526200004d91620002df565b60015f5533806200007857604051631e4fbdf760e01b81525f60048201526024015b60405180910390fd5b62000083816200026a565b506001600160a01b038216620000ea5760405162461bcd60e51b815260206004820152602560248201527f44656c6567617465645374616b696e673a20677561726420746f6b656e206973604482015264207a65726f60d81b60648201526084016200006f565b6001600160a01b0381166200014d5760405162461bcd60e51b815260206004820152602260248201527f44656c6567617465645374616b696e673a207472656173757279206973207a65604482015261726f60f01b60648201526084016200006f565b600280546001600160a01b038481166001600160a01b03199283168117909355600580549185169190921617905560405163248a35ef60e11b815230600482015260248101919091525f90610167906349146bde906044016020604051808303815f875af1158015620001c2573d5f803e3d5ffd5b505050506040513d601f19601f82011682018060405250810190620001e8919062000315565b9050600781900b60161480620002025750600781900b60c2145b620002615760405162461bcd60e51b815260206004820152602860248201527f44656c6567617465645374616b696e673a20485453206173736f63696174696f6044820152671b8819985a5b195960c21b60648201526084016200006f565b5050506200033e565b600180546001600160a01b03838116610100818102610100600160a81b031985161790945560405193909204169182907f8be0079c531659141344cd1fd0a4f28419497f9722a3daafe3b4186f6b6457e0905f90a35050565b80516001600160a01b0381168114620002da575f80fd5b919050565b5f8060408385031215620002f1575f80fd5b620002fc83620002c3565b91506200030c60208401620002c3565b90509250929050565b5f6020828403121562000326575f80fd5b81518060070b811462000337575f80fd5b9392505050565b6141f3806200034c5f395ff3fe608060405260043610610327575f3560e01c80636cf6d675116101a35780638e1a6d57116100f2578063e56588ef11610092578063eedee5cf1161006d578063eedee5cf14610c03578063ef5cfb8c14610c22578063f0f4426014610c41578063f2fde38b14610c60575f80fd5b8063e56588ef14610b06578063ec1a479114610b25578063ed26769114610b44575f80fd5b8063c4d03bb9116100cd578063c4d03bb9146109ab578063cf049cad146109ca578063d1da6be314610ad4578063d36535e814610af3575f80fd5b80638e1a6d5714610959578063b00bba6a14610978578063b0838f1014610997575f80fd5b80637a2a4bc81161015d5780638456cb59116101385780638456cb59146108d65780638b41166c146108ea5780638d1696c9146109095780638da5cb5b14610937575f80fd5b80637a2a4bc8146108795780637a5c744f146108985780637dd3819e146108b7575f80fd5b80636cf6d675146107d45780636d400201146107e95780637071cdff14610808578063715018a614610827578063755850b81461083b5780637a27db571461085a575f80fd5b80631fbd2c0d116102795780634dbfd150116102195780635e7f6c89116101f45780635e7f6c891461076c57806361d027b31461078157806368c1f3fe146107a05780636a4451ae146107b5575f80fd5b80634dbfd150146107165780635084984c1461072a5780635c975abb14610749575f80fd5b80632c37f393116102545780632c37f393146105905780633f4ba83a146105af578063426f8bb2146105c3578063473849bd146106f7575f80fd5b80631fbd2c0d1461053357806322828cc21461055257806328342ecf14610571575f80fd5b8063114eaf55116102e457806318b093c0116102bf57806318b093c0146104755780631b1cbe2a146104a35780631b3170fb146104c25780631f8038c71461051e575f80fd5b8063114eaf551461040b57806313c366671461042a57806315049a5a14610449575f80fd5b8063029859921461032b578063073db3821461035357806308867ac51461037457806308b29d43146103a15780630b83a727146103d85780630d1cfcae146103ec575b5f80fd5b348015610336575f80fd5b5061034060085481565b6040519081526020015b60405180910390f35b34801561035e575f80fd5b5061037261036d366004613bfc565b610c7f565b005b34801561037f575f80fd5b5061039361038e366004613c15565b610cd9565b60405161034a929190613ca7565b3480156103ac575f80fd5b506103c06103bb366004613ccb565b610d89565b6040516001600160a01b03909116815260200161034a565b3480156103e3575f80fd5b50610372610dbd565b3480156103f7575f80fd5b506004546103c0906001600160a01b031681565b348015610416575f80fd5b50610372610425366004613c15565b610f0a565b348015610435575f80fd5b50610372610444366004613c15565b610f17565b348015610454575f80fd5b50610468610463366004613cf3565b610f73565b60405161034a9190613d24565b348015610480575f80fd5b5061049461048f366004613bfc565b61108f565b60405161034a93929190613e0f565b3480156104ae575f80fd5b506103726104bd366004613bfc565b6112c7565b3480156104cd575f80fd5b506105066104dc366004613bfc565b6001600160a01b03165f908152600d6020526040902054600160a01b90046001600160601b031690565b6040516001600160601b03909116815260200161034a565b348015610529575f80fd5b50610340600a5481565b34801561053e575f80fd5b5061037261054d366004613e51565b611317565b34801561055d575f80fd5b506003546103c0906001600160a01b031681565b34801561057c575f80fd5b5061037261058b366004613bfc565b6115a5565b34801561059b575f80fd5b506103726105aa366004613c15565b6115cf565b3480156105ba575f80fd5b5061037261162e565b3480156105ce575f80fd5b5061068f6105dd366004613bfc565b6040805160c0810182525f80825260208201819052918101829052606081018290526080810182905260a0810191909152506001600160a01b039081165f908152600d6020908152604091829020825160c08101845281549485168152600160a01b9094046001600160601b0390811692850192909252600181015490911691830191909152600281015460608301526003015461ffff8116608083015262010000900463ffffffff1660a082015290565b6040805182516001600160a01b031681526020808401516001600160601b03908116918301919091528383015116918101919091526060808301519082015260808083015161ffff169082015260a09182015163ffffffff169181019190915260c00161034a565b348015610702575f80fd5b50610372610711366004613bfc565b61163e565b348015610721575f80fd5b506103726116bd565b348015610735575f80fd5b50610372610744366004613bfc565b6117fb565b348015610754575f80fd5b5060015460ff165b604051901515815260200161034a565b348015610777575f80fd5b50610340600b5481565b34801561078c575f80fd5b506005546103c0906001600160a01b031681565b3480156107ab575f80fd5b5061034060125481565b3480156107c0575f80fd5b506103726107cf366004613bfc565b611823565b3480156107df575f80fd5b5061034060095481565b3480156107f4575f80fd5b50610372610803366004613bfc565b611873565b348015610813575f80fd5b50610393610822366004613bfc565b6119ef565b348015610832575f80fd5b50610372611ba5565b348015610846575f80fd5b50610340610855366004613bfc565b611bb6565b348015610865575f80fd5b50610506610874366004613cf3565b611c72565b348015610884575f80fd5b50610372610893366004613bfc565b611cd0565b3480156108a3575f80fd5b506103726108b2366004613ccb565b611ef5565b3480156108c2575f80fd5b506103726108d1366004613e91565b61240b565b3480156108e1575f80fd5b5061037261255e565b3480156108f5575f80fd5b50610372610904366004613e51565b61256e565b348015610914575f80fd5b5061075c610923366004613bfc565b60076020525f908152604090205460ff1681565b348015610942575f80fd5b5060015461010090046001600160a01b03166103c0565b348015610964575f80fd5b506103c0610973366004613ccb565b6125c8565b348015610983575f80fd5b50610372610992366004613bfc565b6125e1565b3480156109a2575f80fd5b5061037261260b565b3480156109b6575f80fd5b5061075c6109c5366004613cf3565b61288b565b3480156109d5575f80fd5b50610a626109e4366004613c15565b600c6020525f90815260409020805460018201546002830154600384015460048501546005909501546001600160a01b0394851695948416946001600160601b03600160a01b90950485169465ffffffffffff80861695600160301b8104821695600160601b91829004841695938116949190049091169160ff168a565b604080516001600160a01b039b8c1681529a90991660208b01526001600160601b03978816988a019890985265ffffffffffff95861660608a0152938516608089015291851660a08801529390931660c0860152911660e084015261010083015215156101208201526101400161034a565b348015610adf575f80fd5b50610372610aee366004613e51565b6128b3565b610372610b01366004613bfc565b612cf9565b348015610b11575f80fd5b506002546103c0906001600160a01b031681565b348015610b30575f80fd5b506006546103c0906001600160a01b031681565b348015610b4f575f80fd5b50610bb5610b5e366004613bfc565b600d6020525f908152604090208054600182015460028301546003909301546001600160a01b03831693600160a01b9093046001600160601b03908116939216919061ffff81169062010000900463ffffffff1686565b604080516001600160a01b039790971687526001600160601b0395861660208801529390941692850192909252606084015261ffff16608083015263ffffffff1660a082015260c00161034a565b348015610c0e575f80fd5b50610372610c1d366004613c15565b612e31565b348015610c2d575f80fd5b50610372610c3c366004613bfc565b612ea5565b348015610c4c575f80fd5b50610372610c5b366004613bfc565b612fac565b348015610c6b575f80fd5b50610372610c7a366004613bfc565b612ffc565b610c87613036565b6001600160a01b038116610cb65760405162461bcd60e51b8152600401610cad90613eb2565b60405180910390fd5b6001600160a01b03165f908152600760205260409020805460ff19166001179055565b6060805f808467ffffffffffffffff811115610cf757610cf7613ef3565b604051908082528060200260200182016040528015610d20578160200160208202803683370190505b5090505f8567ffffffffffffffff811115610d3d57610d3d613ef3565b604051908082528060200260200182016040528015610d66578160200160208202803683370190505b5050604080515f8082526020820190815281830190925297909650945050505050565b600f602052815f5260405f208181548110610da2575f80fd5b5f918252602090912001546001600160a01b03169150829050565b610dc5613069565b335f908152600e60205260408120805490915b81811015610efc575f838281548110610df357610df3613f07565b5f9182526020822001546001600160a01b03169150610e123383613091565b5f818152600c6020526040902060058101549192509060ff16610e3757505050610ef4565b6001600160a01b0383165f908152600d60205260409020610e5882826130d5565b6002820154600160601b90046001600160601b03165f819003610e7f575050505050610ef4565b600283018054600160301b600160c01b031916600160301b4265ffffffffffff1602179055610eb830336001600160601b038416613149565b6040516001600160601b03821681526001600160a01b0386169033905f8051602061419e8339815191529060200160405180910390a350505050505b600101610dd8565b505050610f0860015f55565b565b610f12613036565b600955565b610f1f613036565b5f8111610f6e5760405162461bcd60e51b815260206004820181905260248201527f44656c6567617465645374616b696e673a20616d6f756e74206973207a65726f6044820152606401610cad565b600855565b60408051610140810182525f80825260208201819052918101829052606081018290526080810182905260a0810182905260c0810182905260e081018290526101008101829052610120810191909152600c5f610fd08585613091565b815260208082019290925260409081015f2081516101408101835281546001600160a01b039081168252600183015490811694820194909452600160a01b9093046001600160601b0390811692840192909252600281015465ffffffffffff8082166060860152600160301b820481166080860152600160601b91829004841660a0860152600383015493841660c0860152920490911660e083015260048101546101008301526005015460ff16151561012082015290505b92915050565b6001600160a01b0381165f908152600e60205260409020805460609182918291908067ffffffffffffffff8111156110c9576110c9613ef3565b6040519080825280602002602001820160405280156110f2578160200160208202803683370190505b5094508067ffffffffffffffff81111561110e5761110e613ef3565b604051908082528060200260200182016040528015611137578160200160208202803683370190505b5093508067ffffffffffffffff81111561115357611153613ef3565b60405190808252806020026020018201604052801561117c578160200160208202803683370190505b5092505f5b818110156112bd575f83828154811061119c5761119c613f07565b905f5260205f20015f9054906101000a90046001600160a01b03169050808783815181106111cc576111cc613f07565b60200260200101906001600160a01b031690816001600160a01b0316815250505f6111f78983613091565b5f818152600c6020526040902060058101549192509060ff1661121c575050506112b5565b8060010160149054906101000a90046001600160601b031688858151811061124657611246613f07565b6001600160601b039092166020928302919091018201526001600160a01b0384165f908152600d9091526040902061127f9082906132fe565b87858151811061129157611291613f07565b60200260200101906001600160601b031690816001600160601b0316815250505050505b600101611181565b5050509193909250565b6112cf613036565b6001600160a01b0381166112f55760405162461bcd60e51b8152600401610cad90613eb2565b600280546001600160a01b0319166001600160a01b0392909216919091179055565b61131f613069565b335f90815260076020526040902054829060ff16806113465750336001600160a01b038216145b6113a75760405162461bcd60e51b815260206004820152602c60248201527f44656c6567617465645374616b696e673a206e6f7420617574686f72697a656460448201526b103234b9ba3934b13aba37b960a11b6064820152608401610cad565b6001600160a01b038084165f818152600d602052604090208054909216146114205760405162461bcd60e51b815260206004820152602660248201527f44656c6567617465645374616b696e673a20706f6f6c206e6f7420696e697469604482015265185b1a5e995960d21b6064820152608401610cad565b8054600160a01b90046001600160601b0316158061144557506001600160601b038316155b156114505750611597565b60038101545f90612710906114729061ffff166001600160601b038716613f2f565b61147c9190613f46565b9050806001600160601b03165f03611495575050611597565b6114a93330836001600160601b0316613149565b81546001600160601b03600160a01b9091048116906114d8906c0c9f2c9cd04674edea40000000908416613f2f565b6114e29190613f46565b826002015f8282546114f49190613f65565b90915550506001820180548291905f906115189084906001600160601b0316613f78565b92506101000a8154816001600160601b0302191690836001600160601b03160217905550846001600160a01b03167fdecc5b7859a250763ca551166d4757c6095712a68807f03be8843a1862c54488858360405161158c9291906001600160601b0392831681529116602082015260400190565b60405180910390a250505b506115a160015f55565b5050565b6115ad613036565b600480546001600160a01b0319166001600160a01b0392909216919091179055565b6115d7613036565b6113888111156116295760405162461bcd60e51b815260206004820152601d60248201527f44656c6567617465645374616b696e673a2065786365656473203530250000006044820152606401610cad565b600b55565b611636613036565b610f086133ab565b611646613069565b5f611650826133fd565b90506116663033836001600160601b0316613149565b6040516001600160601b03821681526001600160a01b0383169033907faaa3842ebf2fbbe5d95b415fa7ec351ef93724440b8d4efa3af7351d13f2dc3e906020015b60405180910390a3506116ba60015f55565b50565b6116c5613036565b6116cd613069565b60025460405163248a35ef60e11b81523060048201526001600160a01b0390911660248201525f90610167906349146bde906044016020604051808303815f875af115801561171e573d5f803e3d5ffd5b505050506040513d601f19601f820116820180604052508101906117429190613f9f565b9050600781900b6016148061175b5750600781900b60c2145b6117ba5760405162461bcd60e51b815260206004820152602a60248201527f44656c6567617465645374616b696e673a20746f6b656e206173736f636961746044820152691a5bdb8819985a5b195960b21b6064820152608401610cad565b6002546040516001600160a01b03909116907f9ec89a37a2bd4990d4a31ed9c5edf4f95bd68ad0375584a1f1dcb0327d88f9fa905f90a250610f0860015f55565b611803613036565b6001600160a01b03165f908152600760205260409020805460ff19169055565b61182b613036565b6001600160a01b0381166118515760405162461bcd60e51b8152600401610cad90613eb2565b600680546001600160a01b0319166001600160a01b0392909216919091179055565b61187b613069565b6006546001600160a01b03166118a35760405162461bcd60e51b8152600401610cad90613fbf565b5f6118ad826133fd565b60025460065460405163095ea7b360e01b81526001600160a01b0391821660048201526001600160601b0384166024820152929350169063095ea7b3906044016020604051808303815f875af1158015611909573d5f803e3d5ffd5b505050506040513d601f19601f8201168201806040525081019061192d9190614002565b50600654604051637097845b60e11b81526001600160601b03831660048201523360248201526001600160a01b039091169063e12f08b6906044016020604051808303815f875af1158015611984573d5f803e3d5ffd5b505050506040513d601f19601f820116820180604052508101906119a89190614021565b506040516001600160601b03821681526001600160a01b0383169033907faaa3842ebf2fbbe5d95b415fa7ec351ef93724440b8d4efa3af7351d13f2dc3e906020016116a8565b6001600160a01b0381165f908152600f60205260409020805460609182918067ffffffffffffffff811115611a2657611a26613ef3565b604051908082528060200260200182016040528015611a4f578160200160208202803683370190505b5093508067ffffffffffffffff811115611a6b57611a6b613ef3565b604051908082528060200260200182016040528015611a94578160200160208202803683370190505b5092505f5b81811015611b9d57828181548110611ab357611ab3613f07565b905f5260205f20015f9054906101000a90046001600160a01b0316858281518110611ae057611ae0613f07565b60200260200101906001600160a01b031690816001600160a01b0316815250505f611b30848381548110611b1657611b16613f07565b5f918252602090912001546001600160a01b031688613091565b5f818152600c6020526040902060058101549192509060ff16611b53575f611b69565b6001810154600160a01b90046001600160601b03165b868481518110611b7b57611b7b613f07565b6001600160601b03909216602092830291909101909101525050600101611a99565b505050915091565b611bad613036565b610f085f6135c6565b6003545f9081906001600160a01b031615611c39576003546040516301108faf60e11b81526001600160a01b038581166004830152909116906302211f5e90602401602060405180830381865afa925050508015611c31575060408051601f3d908101601f19168201909252611c2e91810190614021565b60015b15611c395790505b6001600160a01b0383165f908152600d6020526040902054611c6b90600160a01b90046001600160601b031682613f65565b9392505050565b5f80611c7e8484613091565b5f818152600c6020526040902060058101549192509060ff16611ca5575f92505050611089565b6001600160a01b0384165f908152600d60205260409020611cc79082906132fe565b95945050505050565b611cd8613069565b6006546001600160a01b0316611d005760405162461bcd60e51b8152600401610cad90613fbf565b5f611d0b3383613091565b5f818152600c6020526040902060058101549192509060ff16611d405760405162461bcd60e51b8152600401610cad90614038565b6001600160a01b0383165f908152600d60205260409020611d6182826130d5565b6002820154600160601b90046001600160601b031680611d935760405162461bcd60e51b8152600401610cad9061407e565b60028381018054600160301b600160c01b031916600160301b4265ffffffffffff16021790555460065460405163095ea7b360e01b81526001600160a01b0391821660048201526001600160601b038416602482015291169063095ea7b3906044016020604051808303815f875af1158015611e11573d5f803e3d5ffd5b505050506040513d601f19601f82011682018060405250810190611e359190614002565b50600654604051637097845b60e11b81526001600160601b03831660048201523360248201526001600160a01b039091169063e12f08b6906044016020604051808303815f875af1158015611e8c573d5f803e3d5ffd5b505050506040513d601f19601f82011682018060405250810190611eb09190614021565b506040516001600160601b03821681526001600160a01b0386169033905f8051602061419e833981519152906020015b60405180910390a3505050506116ba60015f55565b611efd613069565b6003546001600160a01b03163314611f655760405162461bcd60e51b815260206004820152602560248201527f44656c6567617465645374616b696e673a206e6f74207374616b696e67206d616044820152643730b3b2b960d91b6064820152608401610cad565b612710811115611fc85760405162461bcd60e51b815260206004820152602860248201527f44656c6567617465645374616b696e673a20736c617368206270732065786365604482015267656473203130302560c01b6064820152608401610cad565b6001600160a01b0382165f908152600d6020526040812080549091600160a01b9091046001600160601b031690036120005750612402565b6001600160a01b0383165f908152600f602052604081208054909180805b83811015612379575f85828154811061203957612039613f07565b5f9182526020822001546001600160a01b03169150612058828b613091565b5f818152600c6020526040902060058101549192509060ff16158061208f57506001810154600160a01b90046001600160601b0316155b1561209c57505050612371565b60018101545f90612710906120c2908d90600160a01b90046001600160601b0316613f2f565b6120cc9190613f46565b60018301549091506001600160601b03600160a01b9091048116908216111561210657506001810154600160a01b90046001600160601b03165b60038201545f906001600160601b03161561216e57600383015461271090612138908e906001600160601b0316613f2f565b6121429190613f46565b60038401549091506001600160601b03908116908216111561216e575060038201546001600160601b03165b5f6121798284613f78565b9050806001600160601b03165f0361219657505050505050612371565b828460010160148282829054906101000a90046001600160601b03166121bc91906140c3565b92506101000a8154816001600160601b0302191690836001600160601b0316021790555081846003015f8282829054906101000a90046001600160601b031661220591906140c3565b92506101000a8154816001600160601b0302191690836001600160601b0316021790555080896122359190613f78565b8c549099506001600160601b03808516600160a01b90920416101561225a575f612277565b8b54612277908490600160a01b90046001600160601b03166140c3565b8c546001600160a01b0316600160a01b6001600160601b0392831602178d5560125490841611156122a8575f6122bf565b826001600160601b03166012546122bf91906140e3565b601255876122cc816140f6565b6001860154909950600160a01b90046001600160601b031615905080156122fe575060038401546001600160601b0316155b1561236a5760058401805460ff1916905560038c015462010000900463ffffffff1661232a575f612347565b60038c01546123479060019062010000900463ffffffff16614118565b8c60030160026101000a81548163ffffffff021916908363ffffffff1602179055505b5050505050505b60010161201e565b506001600160601b038216156123aa576005546123aa9030906001600160a01b03166001600160601b038516613149565b604080516001600160601b038416815263ffffffff831660208201526001600160a01b038916917f73a1a324ecb322c11617bc3aa6d6c679690411330fb504a76203c297dac8b34f910160405180910390a250505050505b6115a160015f55565b60648161ffff161015801561242657506113888161ffff1611155b6124885760405162461bcd60e51b815260206004820152602d60248201527f44656c6567617465645374616b696e673a20627073206f7574206f662072616e60448201526c6765205b3130302c353030305d60981b6064820152608401610cad565b335f818152600d60205260409020805490916001600160a01b03909116146125025760405162461bcd60e51b815260206004820152602760248201527f44656c6567617465645374616b696e673a206e6f7420612072656769737465726044820152661959081c1bdbdb60ca1b6064820152608401610cad565b60038101805461ffff84811661ffff19831681179093556040805191909216808252602082019390935233917fbdf481a31c32fac88dab2440dcd67f45d33b63914ab742d23afdb0f6b77688fb910160405180910390a2505050565b612566613036565b610f0861361f565b612576613069565b61257e61365a565b600854816001600160601b031610156125a95760405162461bcd60e51b8152600401610cad90614135565b6125bd3330836001600160601b0316613149565b61240233838361367e565b600e602052815f5260405f208181548110610da2575f80fd5b6125e9613036565b600380546001600160a01b0319166001600160a01b0392909216919091179055565b612613613069565b6006546001600160a01b031661263b5760405162461bcd60e51b8152600401610cad90613fbf565b335f908152600e6020526040812080549091805b82811015612775575f84828154811061266a5761266a613f07565b5f9182526020822001546001600160a01b031691506126893383613091565b5f818152600c6020526040902060058101549192509060ff166126ae5750505061276d565b6001600160a01b0383165f908152600d602052604090206126cf82826130d5565b6002820154600160601b90046001600160601b03165f8190036126f657505050505061276d565b600283018054600160301b600160c01b031916600160301b4265ffffffffffff160217905561272e6001600160601b03821688613f65565b6040516001600160601b03831681529097506001600160a01b0386169033905f8051602061419e8339815191529060200160405180910390a350505050505b60010161264f565b505f81116127955760405162461bcd60e51b8152600401610cad9061407e565b60025460065460405163095ea7b360e01b81526001600160a01b0391821660048201526024810184905291169063095ea7b3906044016020604051808303815f875af11580156127e7573d5f803e3d5ffd5b505050506040513d601f19601f8201168201806040525081019061280b9190614002565b50600654604051637097845b60e11b8152600481018390523360248201526001600160a01b039091169063e12f08b6906044016020604051808303815f875af115801561285a573d5f803e3d5ffd5b505050506040513d601f19601f8201168201806040525081019061287e9190614021565b50505050610f0860015f55565b5f806128978484613091565b5f908152600c602052604090206005015460ff16949350505050565b6128bb613069565b6128c361365a565b5f6128ce3384613091565b5f818152600c6020526040902060058101549192509060ff166129035760405162461bcd60e51b8152600401610cad90614038565b5f836001600160601b03161161295b5760405162461bcd60e51b815260206004820181905260248201527f44656c6567617465645374616b696e673a20616d6f756e74206973207a65726f6044820152606401610cad565b60018101546001600160601b03600160a01b909104811690841611156129d65760405162461bcd60e51b815260206004820152602a60248201527f44656c6567617465645374616b696e673a20657863656564732064656c6567616044820152691d195908185b5bdd5b9d60b21b6064820152608401610cad565b60038101546001600160601b031615612a495760405162461bcd60e51b815260206004820152602f60248201527f44656c6567617465645374616b696e673a20756e626f6e64696e6720616c726560448201526e61647920696e2070726f677265737360881b6064820152608401610cad565b6001600160a01b0384165f908152600d60205260409020612a6a82826130d5565b838260010160148282829054906101000a90046001600160601b0316612a9091906140c3565b92506101000a8154816001600160601b0302191690836001600160601b0316021790555083826003015f6101000a8154816001600160601b0302191690836001600160601b0316021790555060095442612aea9190613f65565b60038301805465ffffffffffff92909216600160601b0265ffffffffffff60601b19909216919091179055805484908290601490612b3a9084906001600160601b03600160a01b909104166140c3565b92506101000a8154816001600160601b0302191690836001600160601b03160217905550836001600160601b031660125f828254612b7891906140e3565b90915550506001820154600160a01b90046001600160601b031615801590612bbb575060085460018301546001600160601b03918216600160a01b909104909116105b15612c8b576001820180546001600160a01b0381169091556003830180546001600160601b03600160a01b9093048316928392915f91612bfd91859116613f78565b92506101000a8154816001600160601b0302191690836001600160601b0316021790555080825f0160148282829054906101000a90046001600160601b0316612c4691906140c3565b92506101000a8154816001600160601b0302191690836001600160601b03160217905550806001600160601b031660125f828254612c8491906140e3565b9091555050505b6003820154604080516001600160601b0387168152600160601b90920465ffffffffffff1660208301526001600160a01b0387169133917fc11d240f95cbd83f6c4eadbdbf590ecfee2437112cc5a587fef7cc1c0ef44e59910160405180910390a35050506115a160015f55565b612d01613069565b612d0961365a565b5f3411612d585760405162461bcd60e51b815260206004820152601b60248201527f44656c6567617465645374616b696e673a207a65726f206862617200000000006044820152606401610cad565b6006546001600160a01b0316612d805760405162461bcd60e51b8152600401610cad90613fbf565b5f60065f9054906101000a90046001600160a01b03166001600160a01b0316632e4a49fa346040518263ffffffff1660e01b815260040160206040518083038185885af1158015612dd3573d5f803e3d5ffd5b50505050506040513d601f19601f82011682018060405250810190612df89190614021565b9050600854811015612e1c5760405162461bcd60e51b8152600401610cad90614135565b612e2733838361367e565b506116ba60015f55565b612e39613036565b5f81118015612e49575060c88111155b612ea05760405162461bcd60e51b815260206004820152602260248201527f44656c6567617465645374616b696e673a206d6178206f7574206f662072616e604482015261676560f01b6064820152608401610cad565b600a55565b612ead613069565b5f612eb83383613091565b5f818152600c6020526040902060058101549192509060ff16612eed5760405162461bcd60e51b8152600401610cad90614038565b6001600160a01b0383165f908152600d60205260409020612f0e82826130d5565b6002820154600160601b90046001600160601b031680612f405760405162461bcd60e51b8152600401610cad9061407e565b600283018054600160301b600160c01b031916600160301b4265ffffffffffff1602179055612f7930336001600160601b038416613149565b6040516001600160601b03821681526001600160a01b0386169033905f8051602061419e83398151915290602001611ee0565b612fb4613036565b6001600160a01b038116612fda5760405162461bcd60e51b8152600401610cad90613eb2565b600580546001600160a01b0319166001600160a01b0392909216919091179055565b613004613036565b6001600160a01b03811661302d57604051631e4fbdf760e01b81525f6004820152602401610cad565b6116ba816135c6565b6001546001600160a01b03610100909104163314610f085760405163118cdaa760e01b8152336004820152602401610cad565b60025f540361308b57604051633ee5aeb560e01b815260040160405180910390fd5b60025f55565b6040516001600160601b0319606084811b8216602084015283901b1660348201525f9060480160405160208183030381529060405280519060200120905092915050565b5f6130e083836132fe565b90506001600160601b0381161561313c578083600201600c8282829054906101000a90046001600160601b03166131179190613f78565b92506101000a8154816001600160601b0302191690836001600160601b031602179055505b5060020154600490910155565b306001600160a01b038416036132285760025460405163a9059cbb60e01b81526001600160a01b038481166004830152602482018490529091169063a9059cbb906044016020604051808303815f875af11580156131a9573d5f803e3d5ffd5b505050506040513d601f19601f820116820180604052508101906131cd9190614002565b6132235760405162461bcd60e51b815260206004820152602160248201527f44656c6567617465645374616b696e673a207472616e73666572206661696c656044820152601960fa1b6064820152608401610cad565b505050565b6002546040516323b872dd60e01b81526001600160a01b038581166004830152848116602483015260448201849052909116906323b872dd906064016020604051808303815f875af1158015613280573d5f803e3d5ffd5b505050506040513d601f19601f820116820180604052508101906132a49190614002565b6132235760405162461bcd60e51b815260206004820152602560248201527f44656c6567617465645374616b696e673a207472616e7366657246726f6d2066604482015264185a5b195960da1b6064820152608401610cad565b60018201545f90600160a01b90046001600160601b0316810361332257505f611089565b5f8360040154836002015461333791906140e3565b9050805f03613349575f915050611089565b60018401545f906c0c9f2c9cd04674edea400000009061337a908490600160a01b90046001600160601b0316613f2f565b6133849190613f46565b90506001600160601b03811161339a5780611cc7565b506001600160601b03949350505050565b6133b3613a4a565b6001805460ff191690557f5db9ee0a495bf2e6ff9c91a7834c1ba4fdd244a5e8aa4e537bd38aeae4b073aa335b6040516001600160a01b03909116815260200160405180910390a1565b5f806134093384613091565b5f818152600c6020526040902060058101549192509060ff1661343e5760405162461bcd60e51b8152600401610cad90614038565b60038101546001600160601b03166134a65760405162461bcd60e51b815260206004820152602560248201527f44656c6567617465645374616b696e673a206e6f7468696e6720746f20636f6d604482015264706c65746560d81b6064820152608401610cad565b6003810154600160601b900465ffffffffffff164210156135205760405162461bcd60e51b815260206004820152602e60248201527f44656c6567617465645374616b696e673a20756e626f6e64696e67207065726960448201526d1bd9081b9bdd08195b185c1cd95960921b6064820152608401610cad565b60038101805471ffffffffffffffffffffffffffffffffffff19811690915560018201546001600160601b039182169450600160a01b9004165f036135bf5760058101805460ff191690556001600160a01b0384165f908152600d60205260409020600301805462010000900463ffffffff1690600261359f8361417f565b91906101000a81548163ffffffff021916908363ffffffff160217905550505b5050919050565b600180546001600160a01b03838116610100818102610100600160a81b031985161790945560405193909204169182907f8be0079c531659141344cd1fd0a4f28419497f9722a3daafe3b4186f6b6457e0905f90a35050565b61362761365a565b6001805460ff1916811790557f62e78cea01bee320cd4e420270b5ea74000d11b0c9f74754ebdbfc544b05a258336133e0565b60015460ff1615610f085760405163d93c066560e01b815260040160405180910390fd5b6004546001600160a01b03161561375457600480546040516332f0f23360e11b81526001600160a01b03858116938201939093529116906365e1e46690602401602060405180830381865afa1580156136d9573d5f803e3d5ffd5b505050506040513d601f19601f820116820180604052508101906136fd9190614002565b6137545760405162461bcd60e51b815260206004820152602260248201527f44656c6567617465645374616b696e673a206167656e74206e6f742061637469604482015261766560f01b6064820152608401610cad565b6001600160a01b038083165f908152600d6020526040902080549091166137a95780546001600160a01b0319166001600160a01b038416178155600b5460038201805461ffff191661ffff9092169190911790555b5f6137b48585613091565b5f818152600c6020526040902060058101549192509060ff1661390157600a54600384015462010000900463ffffffff16106138445760405162461bcd60e51b815260206004820152602960248201527f44656c6567617465645374616b696e673a206167656e74206174206d61782064604482015268656c656761746f727360b81b6064820152608401610cad565b80546001600160a01b038088166001600160a01b03199283161783556001808401805492891692909316919091179091556002808301805465ffffffffffff421665ffffffffffff1990911617905560058301805460ff191690921790915583015460048201556138b58686613a6d565b6138bf8587613b27565b60038301805462010000900463ffffffff169060026138dd836140f6565b91906101000a81548163ffffffff021916908363ffffffff1602179055505061390b565b61390b81846130d5565b838160010160148282829054906101000a90046001600160601b03166139319190613f78565b92506101000a8154816001600160601b0302191690836001600160601b0316021790555083835f0160148282829054906101000a90046001600160601b031661397a9190613f78565b92506101000a8154816001600160601b0302191690836001600160601b03160217905550836001600160601b031660125f8282546139b89190613f65565b90915550506002810180546bffffffffffff0000000000001916600160301b4265ffffffffffff16021790558254604080516001600160601b038088168252600160a01b90930490921660208301526001600160a01b0387811692908916917f88559326e9febea193bc0f89edd01159309ab1eada93de392c56f1970d63918d910160405180910390a3505050505050565b60015460ff16610f0857604051638dfc202b60e01b815260040160405180910390fd5b60405161646160f01b60208201526001600160601b0319606084811b8216602284015283901b1660368201525f90604a0160408051601f1981840301815291815281516020928301205f818152601090935291205490915060ff16613223576001600160a01b039283165f908152600e602090815260408083208054600180820183559185528385200180546001600160a01b0319169690971695909517909555918152601090915291909120805460ff19169091179055565b60405161185960f21b60208201526001600160601b0319606084811b8216602284015283901b1660368201525f90604a0160408051601f1981840301815291815281516020928301205f818152601190935291205490915060ff16613223576001600160a01b039283165f908152600f602090815260408083208054600180820183559185528385200180546001600160a01b0319169690971695909517909555918152601190915291909120805460ff19169091179055565b80356001600160a01b0381168114613bf7575f80fd5b919050565b5f60208284031215613c0c575f80fd5b611c6b82613be1565b5f60208284031215613c25575f80fd5b5035919050565b5f815180845260208085019450602084015f5b83811015613c645781516001600160a01b031687529582019590820190600101613c3f565b509495945050505050565b5f815180845260208085019450602084015f5b83811015613c645781516001600160601b031687529582019590820190600101613c82565b604081525f613cb96040830185613c2c565b8281036020840152611cc78185613c6f565b5f8060408385031215613cdc575f80fd5b613ce583613be1565b946020939093013593505050565b5f8060408385031215613d04575f80fd5b613d0d83613be1565b9150613d1b60208401613be1565b90509250929050565b81516001600160a01b0316815261014081016020830151613d5060208401826001600160a01b03169052565b506040830151613d6b60408401826001600160601b03169052565b506060830151613d85606084018265ffffffffffff169052565b506080830151613d9f608084018265ffffffffffff169052565b5060a0830151613dba60a08401826001600160601b03169052565b5060c0830151613dd560c08401826001600160601b03169052565b5060e0830151613def60e084018265ffffffffffff169052565b506101008381015190830152610120928301511515929091019190915290565b606081525f613e216060830186613c2c565b8281036020840152613e338186613c6f565b90508281036040840152613e478185613c6f565b9695505050505050565b5f8060408385031215613e62575f80fd5b613e6b83613be1565b915060208301356001600160601b0381168114613e86575f80fd5b809150509250929050565b5f60208284031215613ea1575f80fd5b813561ffff81168114611c6b575f80fd5b60208082526021908201527f44656c6567617465645374616b696e673a2061646472657373206973207a65726040820152606f60f81b606082015260800190565b634e487b7160e01b5f52604160045260245ffd5b634e487b7160e01b5f52603260045260245ffd5b634e487b7160e01b5f52601160045260245ffd5b808202811582820484141761108957611089613f1b565b5f82613f6057634e487b7160e01b5f52601260045260245ffd5b500490565b8082018082111561108957611089613f1b565b6001600160601b03818116838216019080821115613f9857613f98613f1b565b5092915050565b5f60208284031215613faf575f80fd5b81518060070b8114611c6b575f80fd5b60208082526023908201527f44656c6567617465645374616b696e673a206862617220706f6f6c206e6f74206040820152621cd95d60ea1b606082015260800190565b5f60208284031215614012575f80fd5b81518015158114611c6b575f80fd5b5f60208284031215614031575f80fd5b5051919050565b60208082526026908201527f44656c6567617465645374616b696e673a206e6f206163746976652064656c6560408201526533b0ba34b7b760d11b606082015260800190565b60208082526025908201527f44656c6567617465645374616b696e673a206e6f207265776172647320746f20604082015264636c61696d60d81b606082015260800190565b6001600160601b03828116828216039080821115613f9857613f98613f1b565b8181038181111561108957611089613f1b565b5f63ffffffff80831681810361410e5761410e613f1b565b6001019392505050565b63ffffffff828116828216039080821115613f9857613f98613f1b565b6020808252602a908201527f44656c6567617465645374616b696e673a2062656c6f77206d696e696d756d206040820152693232b632b3b0ba34b7b760b11b606082015260800190565b5f63ffffffff82168061419457614194613f1b565b5f19019291505056fedd00fd2033fdc429a3075362a89fca9fb1200899de6b9ecbfef712c795e84a91a2646970667358221220c7c408b88d290f6c1fc4772c7d99ce38588375df5acb6f4da82eba978bf1408864736f6c63430008180033",
  "linkReferences": {},
  "deployedLinkReferences": {}
}