{
  "_format": "hh-sol-artifact-1",
  "contractName": "HbarPool",
  "sourceName": "contracts/HbarPool.sol",
  "abi": [
    {
      "inputs": [
        {
          "internalType": "address",
          "name": "_guardToken",
          "type": "address"
        }
      ],
      "stateMutability": "nonpayable",
      "type": "constructor"
    },
    {
      "inputs": [
        {
          "internalType": "address",
          "name": "owner",
          "type": "address"
        }
      ],
      "name": "OwnableInvalidOwner",
      "type": "error"
    },
    {
      "inputs": [
        {
          "internalType": "address",
          "name": "account",
          "type": "address"
        }
      ],
      "name": "OwnableUnauthorizedAccount",
      "type": "error"
    },
    {
      "inputs": [],
      "name": "ReentrancyGuardReentrantCall",
      "type": "error"
    },
    {
      "anonymous": false,
      "inputs": [
        {
          "indexed": true,
          "internalType": "address",
          "name": "caller",
          "type": "address"
        },
        {
          "indexed": true,
          "internalType": "address",
          "name": "recipient",
          "type": "address"
        },
        {
          "indexed": false,
          "internalType": "uint256",
          "name": "guardAmount",
          "type": "uint256"
        },
        {
          "indexed": false,
          "internalType": "uint256",
          "name": "hbarAmount",
          "type": "uint256"
        }
      ],
      "name": "GuardToHbar",
      "type": "event"
    },
    {
      "anonymous": false,
      "inputs": [
        {
          "indexed": true,
          "internalType": "address",
          "name": "caller",
          "type": "address"
        },
        {
          "indexed": false,
          "internalType": "uint256",
          "name": "hbarAmount",
          "type": "uint256"
        },
        {
          "indexed": false,
          "internalType": "uint256",
          "name": "guardAmount",
          "type": "uint256"
        }
      ],
      "name": "HbarToGuard",
      "type": "event"
    },
    {
      "anonymous": false,
      "inputs": [
        {
          "indexed": true,
          "internalType": "address",
          "name": "previousOwner",
          "type": "address"
        },
        {
          "indexed": true,
          "internalType": "address",
          "name": "newOwner",
          "type": "address"
        }
      ],
      "name": "OwnershipTransferred",
      "type": "event"
    },
    {
      "inputs": [],
      "name": "RATE",
      "outputs": [
        {
          "internalType": "uint256",
          "name": "",
          "type": "uint256"
        }
      ],
      "stateMutability": "view",
      "type": "function"
    },
    {
      "inputs": [],
      "name": "getReserves",
      "outputs": [
        {
          "internalType": "uint256",
          "name": "hbarReserve",
          "type": "uint256"
        },
        {
          "internalType": "uint256",
          "name": "guardReserve",
          "type": "uint256"
        }
      ],
      "stateMutability": "view",
      "type": "function"
    },
    {
      "inputs": [
        {
          "internalType": "uint256",
          "name": "guardAmount",
          "type": "uint256"
        }
      ],
      "name": "guardToHbar",
      "outputs": [
        {
          "internalType": "uint256",
          "name": "hbarAmount",
          "type": "uint256"
        }
      ],
      "stateMutability": "nonpayable",
      "type": "function"
    },
    {
      "inputs": [
        {
          "internalType": "uint256",
          "name": "guardAmount",
          "type": "uint256"
        },
        {
          "internalType": "address",
          "name": "recipient",
          "type": "address"
        }
      ],
      "name": "guardToHbarFor",
      "outputs": [
        {
          "internalType": "uint256",
          "name": "hbarAmount",
          "type": "uint256"
        }
      ],
      "stateMutability": "nonpayable",
      "type": "function"
    },
    {
      "inputs": [],
      "name": "guardToken",
      "outputs": [
        {
          "internalType": "contract IERC20",
          "name": "",
          "type": "address"
        }
      ],
      "stateMutability": "view",
      "type": "function"
    },
    {
      "inputs": [],
      "name": "hbarToGuard",
      "outputs": [
        {
          "internalType": "uint256",
          "name": "guardAmount",
          "type": "uint256"
        }
      ],
      "stateMutability": "payable",
      "type": "function"
    },
    {
      "inputs": [],
      "name": "owner",
      "outputs": [
        {
          "internalType": "address",
          "name": "",
          "type": "address"
        }
      ],
      "stateMutability": "view",
      "type": "function"
    },
    {
      "inputs": [
        {
          "internalType": "uint256",
          "name": "hbarTinybars",
          "type": "uint256"
        }
      ],
      "name": "quoteGuardForHbar",
      "outputs": [
        {
          "internalType": "uint256",
          "name": "",
          "type": "uint256"
        }
      ],
      "stateMutability": "pure",
      "type": "function"
    },
    {
      "inputs": [
        {
          "internalType": "uint256",
          "name": "guardAmount",
          "type": "uint256"
        }
      ],
      "name": "quoteHbarForGuard",
      "outputs": [
        {
          "internalType": "uint256",
          "name": "",
          "type": "uint256"
        }
      ],
      "stateMutability": "pure",
      "type": "function"
    },
    {
      "inputs": [],
      "name": "renounceOwnership",
      "outputs": [],
      "stateMutability": "nonpayable",
      "type": "function"
    },
    {
      "inputs": [
        {
          "internalType": "address",
          "name": "newOwner",
          "type": "address"
        }
      ],
      "name": "transferOwnership",
      "outputs": [],
      "stateMutability": "nonpayable",
      "type": "function"
    },
    {
      "inputs": [
        {
          "internalType": "uint256",
          "name": "amount",
          "type": "uint256"
        }
      ],
      "name": "withdrawGuard",
      "outputs": [],
      "stateMutability": "nonpayable",
      "type": "function"
    },
    {
      "inputs": [
        {
          "internalType": "uint256",
          "name": "amount",
          "type": "uint256"
        }
      ],
      "name": "withdrawHbar",
      "outputs": [],
      "stateMutability": "nonpayable",
      "type": "function"
    },
    {
      "stateMutability": "payable",
      "type": "receive"
    }
  ],
  "bytecode": "0x60a060405234801562000010575f80fd5b5060405162001174380380620011748339810160408190526200003391620001fd565b33806200005a57604051631e4fbdf760e01b81525f60048201526024015b60405180910390fd5b6200006581620001ae565b50600180556001600160a01b038116620000c25760405162461bcd60e51b815260206004820152601660248201527f48626172506f6f6c3a207a65726f206164647265737300000000000000000000604482015260640162000051565b6001600160a01b038116608081905260405163248a35ef60e11b815230600482015260248101919091525f90610167906349146bde906044016020604051808303815f875af115801562000118573d5f803e3d5ffd5b505050506040513d601f19601f820116820180604052508101906200013e91906200022c565b9050600781900b60161480620001585750600781900b60c2145b620001a65760405162461bcd60e51b815260206004820181905260248201527f48626172506f6f6c3a20485453206173736f63696174696f6e206661696c6564604482015260640162000051565b50506200024e565b5f80546001600160a01b038381166001600160a01b0319831681178455604051919092169283917f8be0079c531659141344cd1fd0a4f28419497f9722a3daafe3b4186f6b6457e09190a35050565b5f602082840312156200020e575f80fd5b81516001600160a01b038116811462000225575f80fd5b9392505050565b5f602082840312156200023d575f80fd5b81518060070b811462000225575f80fd5b608051610edc620002985f395f81816102360152818161029a0152818161038b0152818161046a0152818161058e0152818161064f015281816108370152610b410152610edc5ff3fe6080604052600436106100c2575f3560e01c806376420f8f1161007c578063a9a555eb11610057578063a9a555eb146101e7578063e12f08b614610206578063e56588ef14610225578063f2fde38b14610258575f80fd5b806376420f8f146101795780638da5cb5b1461019857806394680ef6146101c8575f80fd5b80630902f1ac146100cd5780632e4a49fa146100fb57806344dd07bc14610111578063664e9704146101325780636df0a58a14610146578063715018a614610165575f80fd5b366100c957005b5f80fd5b3480156100d8575f80fd5b506100e1610277565b604080519283526020830191909152015b60405180910390f35b61010361030b565b6040519081526020016100f2565b34801561011c575f80fd5b5061013061012b366004610d31565b61056f565b005b34801561013d575f80fd5b50610103606481565b348015610151575f80fd5b50610103610160366004610d31565b61074a565b348015610170575f80fd5b5061013061093b565b348015610184575f80fd5b50610130610193366004610d31565b61094e565b3480156101a3575f80fd5b505f546001600160a01b03165b6040516001600160a01b0390911681526020016100f2565b3480156101d3575f80fd5b506101036101e2366004610d31565b6109e0565b3480156101f2575f80fd5b50610103610201366004610d31565b6109f2565b348015610211575f80fd5b50610103610220366004610d5e565b6109fe565b348015610230575f80fd5b506101b07f000000000000000000000000000000000000000000000000000000000000000081565b348015610263575f80fd5b50610130610272366004610d88565b610c52565b6040516370a0823160e01b81523060048201525f90819047906001600160a01b037f000000000000000000000000000000000000000000000000000000000000000016906370a0823190602401602060405180830381865afa1580156102df573d5f803e3d5ffd5b505050506040513d601f19601f820116820180604052508101906103039190610da8565b915091509091565b5f610314610c8c565b5f341161035e5760405162461bcd60e51b8152602060048201526013602482015272243130b92837b7b61d103d32b93790343130b960691b60448201526064015b60405180910390fd5b610369606434610dbf565b6040516370a0823160e01b815230600482015290915081906001600160a01b037f000000000000000000000000000000000000000000000000000000000000000016906370a0823190602401602060405180830381865afa1580156103d0573d5f803e3d5ffd5b505050506040513d601f19601f820116820180604052508101906103f49190610da8565b101561044e5760405162461bcd60e51b8152602060048201526024808201527f48626172506f6f6c3a20696e73756666696369656e74204755415244207265736044820152636572766560e01b6064820152608401610355565b60405163a9059cbb60e01b8152336004820152602481018290527f00000000000000000000000000000000000000000000000000000000000000006001600160a01b03169063a9059cbb906044016020604051808303815f875af11580156104b8573d5f803e3d5ffd5b505050506040513d601f19601f820116820180604052508101906104dc9190610de2565b6105285760405162461bcd60e51b815260206004820152601f60248201527f48626172506f6f6c3a204755415244207472616e73666572206661696c6564006044820152606401610355565b604080513481526020810183905233917fa2e56b4f21c2f7fc4928a3c01e0bf2f0e4602ed32219c7cc7d665ea43e9a8e75910160405180910390a261056c60018055565b90565b610577610cb6565b6040516370a0823160e01b815230600482015281907f00000000000000000000000000000000000000000000000000000000000000006001600160a01b0316906370a0823190602401602060405180830381865afa1580156105db573d5f803e3d5ffd5b505050506040513d601f19601f820116820180604052508101906105ff9190610da8565b101561064d5760405162461bcd60e51b815260206004820152601e60248201527f48626172506f6f6c3a20696e73756666696369656e742062616c616e636500006044820152606401610355565b7f00000000000000000000000000000000000000000000000000000000000000006001600160a01b031663a9059cbb61068d5f546001600160a01b031690565b6040516001600160e01b031960e084901b1681526001600160a01b039091166004820152602481018490526044016020604051808303815f875af11580156106d7573d5f803e3d5ffd5b505050506040513d601f19601f820116820180604052508101906106fb9190610de2565b6107475760405162461bcd60e51b815260206004820152601960248201527f48626172506f6f6c3a207472616e73666572206661696c6564000000000000006044820152606401610355565b50565b5f610753610c8c565b5f82116107995760405162461bcd60e51b81526020600482015260146024820152731218985c941bdbdb0e881e995c9bc819dd585c9960621b6044820152606401610355565b6107a4606483610e01565b90505f81116107f55760405162461bcd60e51b815260206004820152601a60248201527f48626172506f6f6c3a20616d6f756e7420746f6f20736d616c6c0000000000006044820152606401610355565b804710156108155760405162461bcd60e51b815260040161035590610e20565b6040516323b872dd60e01b8152336004820152306024820152604481018390527f00000000000000000000000000000000000000000000000000000000000000006001600160a01b0316906323b872dd906064016020604051808303815f875af1158015610885573d5f803e3d5ffd5b505050506040513d601f19601f820116820180604052508101906108a99190610de2565b6108c55760405162461bcd60e51b815260040161035590610e63565b604051339082156108fc029083905f818181858888f193505050501580156108ef573d5f803e3d5ffd5b506040805183815260208101839052339182917fe80224935513c859deabc0f152af81e7924de4ddef7f0f736478d1d6150f0e67910160405180910390a361093660018055565b919050565b610943610cb6565b61094c5f610ce2565b565b610956610cb6565b804710156109a65760405162461bcd60e51b815260206004820152601e60248201527f48626172506f6f6c3a20696e73756666696369656e742062616c616e636500006044820152606401610355565b5f80546040516001600160a01b039091169183156108fc02918491818181858888f193505050501580156109dc573d5f803e3d5ffd5b5050565b5f6109ec606483610dbf565b92915050565b5f6109ec606483610e01565b5f610a07610c8c565b5f8311610a4d5760405162461bcd60e51b81526020600482015260146024820152731218985c941bdbdb0e881e995c9bc819dd585c9960621b6044820152606401610355565b6001600160a01b038216610aa35760405162461bcd60e51b815260206004820152601860248201527f48626172506f6f6c3a207a65726f20726563697069656e7400000000000000006044820152606401610355565b610aae606484610e01565b90505f8111610aff5760405162461bcd60e51b815260206004820152601a60248201527f48626172506f6f6c3a20616d6f756e7420746f6f20736d616c6c0000000000006044820152606401610355565b80471015610b1f5760405162461bcd60e51b815260040161035590610e20565b6040516323b872dd60e01b8152336004820152306024820152604481018490527f00000000000000000000000000000000000000000000000000000000000000006001600160a01b0316906323b872dd906064016020604051808303815f875af1158015610b8f573d5f803e3d5ffd5b505050506040513d601f19601f82011682018060405250810190610bb39190610de2565b610bcf5760405162461bcd60e51b815260040161035590610e63565b6040516001600160a01b0383169082156108fc029083905f818181858888f19350505050158015610c02573d5f803e3d5ffd5b5060408051848152602081018390526001600160a01b0384169133917fe80224935513c859deabc0f152af81e7924de4ddef7f0f736478d1d6150f0e67910160405180910390a36109ec60018055565b610c5a610cb6565b6001600160a01b038116610c8357604051631e4fbdf760e01b81525f6004820152602401610355565b61074781610ce2565b600260015403610caf57604051633ee5aeb560e01b815260040160405180910390fd5b6002600155565b5f546001600160a01b0316331461094c5760405163118cdaa760e01b8152336004820152602401610355565b5f80546001600160a01b038381166001600160a01b0319831681178455604051919092169283917f8be0079c531659141344cd1fd0a4f28419497f9722a3daafe3b4186f6b6457e09190a35050565b5f60208284031215610d41575f80fd5b5035919050565b80356001600160a01b0381168114610936575f80fd5b5f8060408385031215610d6f575f80fd5b82359150610d7f60208401610d48565b90509250929050565b5f60208284031215610d98575f80fd5b610da182610d48565b9392505050565b5f60208284031215610db8575f80fd5b5051919050565b80820281158282048414176109ec57634e487b7160e01b5f52601160045260245ffd5b5f60208284031215610df2575f80fd5b81518015158114610da1575f80fd5b5f82610e1b57634e487b7160e01b5f52601260045260245ffd5b500490565b60208082526023908201527f48626172506f6f6c3a20696e73756666696369656e742048424152207265736560408201526272766560e81b606082015260800190565b60208082526023908201527f48626172506f6f6c3a204755415244207472616e7366657246726f6d206661696040820152621b195960ea1b60608201526080019056fea26469706673582212208777a849d87b2b4aaa7d51258e38de8557c694826dbd1ac4d4aeb73ce12a9bd964736f6c63430008180033",
  "linkReferences": {},
  "deployedLinkReferences": {}
}